:100000000C94A9020C9429270C9402270C94DB264B
:100010000C94B4260C94D1020C94D1020C948D262D
:100020000C94D1020C94D1020C9450270C94BF274D
:100030000C94D1020C94D1020C94D1020C94D102F4
:100040000C94D1020C94D1020C94D1020C94D102E4
:100050000C94D1020C94D1020C94D1020C9443263E
:100060000C94D1020C94D1020C94D1020C94D102C4
:100070000C94D1020C94D1020C94D1020C94D102B4
:100080000C94D1020C94D1020C94D1020C94D102A4
:100090000C94F1290C94D1020C94D1020C94D1024D
:1000A0000C94D1020C94D1020C94D1024D64696E6F
:1000B000200020004D61696E200005010906A101A4
:1000C0008502050719E029E7150025017501950846
:1000D000810295017508810395187508150025732F
:1000E0000507190029738100C0000000000000000E
:1000F000002A2B2800000000000000000000000083
:100100000000000000000000002C9EB4A0A1A2A4EA
:1001100034A6A7A5AE362D3738271E1F202122234F
:10012000242526B333B62EB7B89F84858687888961
:100130008A8B8C8D8E8F90919293949596979899A7
:100140009A9B9C9D2F3130A3AD3504050607080905
:100150000A0B0C0D0E0F1011121314151617181987
:100160001A1B1C1DAFB1B0B500000000000000005C
:10017000002A2B2800000000000000000000000002
:100180000000000000000000002C9E9FE0A1A2A340
:100190002DA5A6B030363837A4271E1F20212223D4
:1001A000242526B7B632A7B2ADDF84858687888935
:1001B0008A8B8C8D8E8F9091929394959697989927
:1001C0009A9B9C9DEFF5F000B8000405060708090E
:1001D0000A0B0C0D0E0F1011121314151617181907
:1001E0001A1B1C1DF4DEF1000000000000000000DE
:1001F000002A2B2800000000000000000000000082
:100200000000000000000000002C9E9FF4A1A2A3AB
:100210002DA5A6B030363837A4271E1F2021222353
:10022000242526B7B632A7B2ADF3848586878889A0
:100230008A8B8C8D8E8F90919293949596979899A6
:100240009A9B9C9DEF35F0AEB8000405060708099F
:100250000A0B0C0D0E0F1011121314151617181986
:100260001A1B1C1D00B5000000000000000000006B
:10027000002A2B2800000000000000000000000001
:100280000000000000000000002C9E9F31A1A2A3EE
:10029000B1A5A6B030363837A4271E1F202122234F
:1002A000242526B7B632A7B2ADD48485868788893F
:1002B0008A8B8C8D8E8F9091929394959697989926
:1002C0009A9B9D9CE5EDE600B80004050607080929
:1002D0000A0B0C0D0E0F1011121314151617181906
:1002E0001A1B1D1CE4F2E7F00000000000000000F3
:1002F000002A2B2800000000000000000000000081
:100300000000000000000000002C3820E030B41E87
:1003100021222D31AE1023B6B7A79E9FA0A1A2A384
:10032000A4A5A63736322EB290E7948586878889B1
:100330008A8B8C8D8E8FB391929384959697989992
:100340009D9B9C9AE2E5EDE625E414050607080965
:100350000A0B0C0D0E0F3311121304151617181972
:100360001D1B1C1AE1E3EEDF0072725F75733D0026
:10037000616F3D00646F3D00200020616E3D0020F4
:100380006D63753D00206D6370323D006D637031AB
:100390003D00453032204B6579206E6F7420666FCA
:1003A000756E6420004D63666720727374004D6340
:1003B0006667206C64004D63666720737664005046
:1003C000617220004D4B7764200020004D48656C21
:1003D000702000080B000202020000090400000166
:1003E000020200000524001001052401010104247B
:1003F00002060524060001070581031000400904D8
:100400000100020A00000007050202400000070583
:1004100083024000000403090412010002EF0201FC
:100420004041233680000101020301417264756975
:100430006E6F204C4C430041726475696E6F204CA6
:10044000656F6E6172646F00493243204572726F4E
:100450007200000000002300260029002C002F005D
:10046000070605040100080A0B0C0D09453033206E
:10047000556E6B6E6F776E207479706520666F7243
:10048000200045303120556E6B6E6F776E206B65A6
:100490007977200056302E302E302E30204A414DB4
:1004A0004D414D49414F50454E20424F415244200D
:1004B0004F4E204C454F4E4152444F003F3031305B
:1004C00030004D4465627567204F4646004D4465D7
:1004D000627567204F4E0000000000240027002AAC
:1004E000002D00300000000000250028002B002E09
:1004F000003100040404040403040502020202049F
:1005000003020202020606060606060404020202AE
:100510000404040802011040804010204080408004
:100520000802040180402010020110801020404089
:10053000200000000200090F0000030401000C006D
:1005400000000000000000000000000000000000AB
:10055000102B11241FBECFEFDAE0DEBFCDBF12E0BB
:10056000A0E0B1E0E4E0FDE602C005900D92A23704
:10057000B107D9F725E0A2E7B2E001C01D92A13989
:10058000B207E1F712E0C9EAD2E004C02197FE0108
:100590000E945134C83AD107C9F70E94402B0C94ED
:1005A00080360C940000FC01AC0148515F4F80E0A4
:1005B00091E32191822728E030E087FF09C0880F6E
:1005C000892721503109C9F7E417F50791F70895F4
:1005D000880FF7CF08950895FC018091AD0488231A
:1005E00011F13FB7F89482E08093E9002091F20086
:1005F000822F90E01816190614F481E090E0882309
:1006000039F0289844E64093AC044091F1004083CF
:10061000222339F02091F200211103C02BE6209310
:10062000E8003FBF08958FEF9FEF089581508F300E
:1006300008F047C0E82FF0E0E05EFC4F0C94513426
:100640003D0341032F033503390361036103610354
:1006500044034A034E035203580361035C03809131
:1006600080008F77809380000895809180008F7D37
:10067000F9CF80918000877FF5CF84B58F7784BDD7
:10068000089584B58F7DFBCF809190008F77809304
:1006900090000895809190008F7DF9CF8091900017
:1006A000877FF5CF8091C0008F778093C000089539
:1006B0008091C0008F7DF9CF8091C200877F8093A9
:1006C000C20008951F93CF93DF93282F30E0F901E4
:1006D000EF5CFA4F8491F901EE5EFA4FD491F90183
:1006E000ED50FB4FC491CC23A9F0162F81110E942D
:1006F0001603EC2FF0E0EE0FFF1FEB51FB4FA5911F
:10070000B4918FB7F894EC91111108C0D095DE2305
:10071000DC938FBFDF91CF911F910895DE2BF8CF2F
:10072000CF93DF9390E0FC01EE5EFA4F24918D5061
:100730009B4FFC0184918823C9F090E0880F991F9A
:10074000FC01E952FB4FA591B491FC01EB51FB4F29
:10075000C591D49161110DC09FB7F8948C912095EB
:1007600082238C938881282328839FBFDF91CF9198
:100770000895623051F49FB7F8943C91822F809590
:1007800083238C93E8812E2BEFCF8FB7F894EC91D5
:100790002E2B2C938FBFEACF8230910538F0880F33
:1007A000991F880F991F05970197F1F708953FB793
:1007B000F8948091A8049091A904A091AA04B09102
:1007C000AB0426B5A89B05C02F3F19F00196A11DCB
:1007D000B11D3FBFBA2FA92F982F8827BC01CD018B
:1007E000620F711D811D911D42E0660F771F881FEA
:1007F000991F4A95D1F70895CF92DF92EF92FF9219
:100800000E94D7036B017C010E94D7036C197D09FC
:100810008E099F09683E734081059105A8F3FF90FA
:10082000EF90DF90CF900895E69A08950895089587
:1008300040912A0350912B032091280330912903E2
:1008400042175307B4F49091E8009570E1F390914A
:10085000E80092FD19C08093F10080912A039091E5
:100860002B0301968F739927892B19F48EEF8093B0
:10087000E80080912A0390912B03019690932B031B
:1008800080932A0381E0089580E00895EF92FF921B
:100890000F931F93CF93DF93F82E192FE62E042F7B
:1008A00081E0860F880F0E94180483E00E941804DC
:1008B000CF2DD12FEC0EFD2EF11CCE15DF05B9F09A
:1008C00007FF13C0FE0184910E941804182F80E0D6
:1008D0000E941804812321968111EFCFDF91CF91DF
:1008E0001F910F91FF90EF9008958881EDCF81E0E7
:1008F000F5CFDF92EF92FF920F931F93CF93DF9389
:10090000D82E8A01EB017B01E40EF51ECE15DF0522
:1009100059F0D7FE12C0FE0184910E94180421965E
:100920008111F4CF0FEF1FEFC801DF91CF911F911D
:100930000F91FF90EF90DF9008958881EECF2FB751
:10094000F89487708093E9009091E800892F807275
:1009500095FF04C09091F20080E4891B2FBF089599
:100960007F928F929F92AF92BF92CF92DF92EF923F
:10097000FF920F931F93CF93DF93C82E8B017A01C1
:100980008091AD04811110C08FEF9FEFDF91CF9167
:100990001F910F91FF90EF90DF90CF90BF90AF909D
:1009A0009F908F907F90089580912E0380FF05C0C7
:1009B0008091E00082608093E000CE2DDF2DD12C6D
:1009C0008AEFB82E8C2D8770982E8C2D8072882EF1
:1009D0008C2D8074782E9AE3A92E209719F4DD20AF
:1009E00009F44EC08C2D0E949F04811106C0BA9458
:1009F000BB2051F20E94FC03F0CF8C171D0611F0B2
:100A00000CF08C2F9FB7F8949092E9002091E800A9
:100A100025FD02C09FBFE1CF282F30E0C21BD30BC2
:100A2000882029F08150A0F01092F100FBCFF8014E
:100A3000C7FC0AC0815050F041914093F100FACFB9
:100A400044914093F10031968150D0F7020F131F6B
:100A5000DD2021F0A092E800D12CDCCF8091E800CD
:100A600085FD07C0A092E800DD24D394209791F281
:100A7000F3CF209779F6772069F2A092E800CACFE9
:100A80005D9884E680932D03C70180CF615030F0DC
:100A90002091F100FC0120830196F8CF289884E68C
:100AA0008093AC0408958091200381110DC082E0F1
:100AB00080931C0384E080931D0310921F03109207
:100AC0001E0381E0809320038CE193E008950F934F
:100AD0001F93CF93DF931F92CDB7DEB782E0898358
:100AE00042E450E063ED73E080E80E9479040E94E4
:100AF0005305DC0112960D911C910115110589F029
:100B0000D801ED91FC910280F381E02DBE016F5F71
:100B10007F4FC801099597FD04C0F8010085118534
:100B2000ECCF89810F90DF91CF911F910F910895A4
:100B3000CF93DF93FC01DB01818114963C911497E4
:100B4000682F630F7727771F683071059CF5C28186
:100B5000D381209739F5B383A283908112969C9319
:100B6000129713968C93139715968C911597890F5E
:100B7000808390E080E0831708F52181C22FD0E0C8
:100B8000BE0160507F4F16964D915C911797480FAC
:100B9000591FEA014881EB0148832F5F21830196A9
:100BA000EACFEA014885598541155105D1F7B98742
:100BB000A887D3CF80E0DF91CF91089581E0FBCF6C
:100BC000EF92FF921F93CF93DF931F92CDB7DEB7C3
:100BD0007C018091150581112CC011E0109308054E
:100BE000109309058EE095E090930B0580930A051C
:100BF00010920D0510920C058FEC91E09093050575
:100C0000809304051092100510920F0510921205A2
:100C100010921105109313051093140581EC809325
:100C20000E050E94530564E075E00E94980510933C
:100C3000150582E0898341E050E0BE016F5F7F4F80
:100C4000809107050E94B00497FD08C080910705B8
:100C50004AE150E0B70180640E94B0040F90DF9138
:100C6000CF911F91FF90EF900895CF93DF93EC0108
:100C700080911201882331F083E00E94B00418169D
:100C8000190634F081E090E09B838A8380E090E055
:100C9000DF91CF910895CF93DF931F92CDB7DEB749
:100CA0006983DC01ED91FC910280F381E02D41E04C
:100CB00050E0BE016F5F7F4F09950F90DF91CF919C
:100CC00008950F931F93CF93DF938C01D0E0C0E082
:100CD000F801EC0FFD1F6491662341F08DE195E072
:100CE0000E944B06892B11F02196F2CFCE01DF91A5
:100CF000CF911F910F91089583E08093E900809137
:100D0000F200882319F08AE38093E800089583E0D5
:100D10000E949F0490E00895CF93DF931F92CDB778
:100D2000DEB7FC018485958597FD08C02FEF3FEF66
:100D3000358724870F90DF91CF910895CE010196DA
:100D40000E94EC02019719F4898190E0F3CF8FEFB4
:100D50009FEFF0CF0F931F93CF93DF931F92CDB7E9
:100D6000DEB78C01FC018485958597FF0BC0CE0111
:100D700001960E94EC02019771F4898190E0F801DC
:100D800095878487F801848595850F90DF91CF91B1
:100D90001F910F9108958FEF9FEFF1CFFC01848594
:100DA000958597FD0BC09FB7F89482E08093E9008A
:100DB0008091F2009FBF90E0019608959FB7F8944C
:100DC00082E08093E9008091F2009FBF90E0089557
:100DD0004F925F926F927F928F929F92AF92BF924B
:100DE000CF92DF92EF92FF920F931F93CF93DF93F7
:100DF000CDB7DEB72C970FB6F894DEBF0FBECDBFD0
:100E0000EA14FB040C051D050CF07FC02701380116
:100E1000A982BA82CB82DC8290E080E0662309F46A
:100E20005DC02D833E834F8358872D813E814F8146
:100E30005885241535054605570524F44D825E82F4
:100E40006F82788689819A81AB81BC8189879A87F4
:100E5000AB87BC872D813E814F8158852817390784
:100E60004A075B0724F429873A874B875C87AE14CF
:100E7000BF04C006D106B4F449815A816B817C81DC
:100E800089859A85AB85BC85481B590B6A0B7B0B02
:100E9000DB01CA01840D951DA61DB71D89879A87A0
:100EA000AB87BC8729853A854B855C852419350934
:100EB00046095709AFEFBFEF0E94CA3329813A8133
:100EC0004B815C8124193509460957090E94AB33CF
:100ED000D4012C9311963C9382E090E02C960FB6AF
:100EE000F894DEBF0FBECDBFDF91CF911F910F9160
:100EF000FF90EF90DF90CF90BF90AF909F908F903A
:100F00007F906F905F904F90089525013601E982A0
:100F1000FA820B831C8380CFDC01FB0112962C919B
:100F20001297848195812817190641F49181808157
:100F3000813A31F49D7F81E0913009F080E008959D
:100F40008132E1F79B3029F482811F968C9381E0F6
:100F500008959A3099F7828150968C93F8CFEF924A
:100F6000FF920F931F93CF93DF93FB0120812138D2
:100F700089F52381223271F5DC0112964C9124818E
:100F800035814217130631F58C01FC01C385D485E8
:100F9000F12CE12C209791F04C815D816A817B815D
:100FA0008E81811180E80E9479048F3F980759F063
:100FB000E80EF91E0990D881C02DECCF81E0D80150
:100FC0001F968C93C701DF91CF911F910F91FF90D6
:100FD000EF90089590E080E0F6CFCF93DF93CDB708
:100FE000DEB769970FB6F894DEBF0FBECDBFFC0128
:100FF000DB018C918F5F8C939E012D5F3F4F8DE0C5
:10100000D9011D928A95E9F729E0298384E08A8332
:1010100091E09D8383E08E832A8721E22B879C8742
:101020009D879F8722E2288B27E02B8B25E02C8B46
:101030008E8B20E430E0388F2F8B998F82818B83C9
:1010400095858685998B8A8B838180688D8B49E114
:1010500050E0BE016F5F7F4F80E00E947904699687
:101060000FB6F894DEBF0FBECDBFDF91CF910895CC
:10107000CF938091140381112CC0C1E0C093F3027F
:10108000C093F40289EF92E09093F6028093F50208
:101090001092F8021092F7028BE891E09093F00220
:1010A0008093EF021092FB021092FA021092FD025E
:1010B0001092FC02C093FE02C093FF0281EC809369
:1010C000F9020E9453056FEE72E00E949805C093EA
:1010D00014038FEE92E0CF910895DC01FB0112968C
:1010E0002C911297848195812817190641F49181DA
:1010F0008081813A31F49D7F81E0913009F080E078
:1011000008958132E1F79B3029F482811F968C93F8
:1011100081E008959A3099F7828150968C93F8CFA8
:10112000DC01FB0188E4808389E4818384E4828399
:101130001D969C911D979F709F5B93831D968D912B
:101140009C9124E0969587952A95E1F78F708F5BA7
:10115000848385E00895EF92FF920F931F93CF93BE
:10116000DF93FB012081213871F52381223259F56B
:10117000DC0112964C91248135814217130619F532
:10118000EC010B851C85F12CE12C0115110589F072
:10119000F801448155816281738180E80E9479045D
:1011A0008F3F980749F0E80EF91ED8010D911C9168
:1011B000ECCF81E08F87C701DF91CF911F910F9115
:1011C000FF90EF90089590E080E0F6CFCF93DF930B
:1011D000CDB7DEB769970FB6F894DEBF0FBECDBFAF
:1011E000FC01DB018C918F5F8C939E012D5F3F4F43
:1011F0008DE0D9011D928A95E9F729E0298384E0E1
:101200008A8391E09D8383E08E832A8721E22B8766
:101210009C879D879F8722E2288B27E02B8B25E0E8
:101220002C8B8E8B20E430E0388F2F8B998F82812E
:101230008B8395858685998B8A8B838180688D8B3E
:1012400049E150E0BE016F5F7F4F80E00E9479046A
:1012500069960FB6F894DEBF0FBECDBFDF91CF9178
:101260000895CF92DF92EF92FF920F931F93CF9347
:10127000DF936C01EB017B01E40EF51E10E000E052
:10128000CE15DF0581F069916D30D1F3D601ED9176
:10129000FC910190F081E02DC6010995892B19F090
:1012A0000F5F1F4FEDCFC801DF91CF911F910F91BD
:1012B000FF90EF90DF90CF900895DC016838C8F080
:1012C0006858FD0188E1662321F09681961301C0DC
:1012D0001682815031968111F6CF90968C9190971D
:1012E000882321F0CD0104960E94E00581E090E082
:1012F0000895862F90E067FF13C0FC01E058F109C4
:1013000081E090E001C0880FEA95EAF78095149695
:101310009C911497892314968C93149760E0D1CFF5
:101320005E96ED91FC915F97E80FF91F649166233B
:10133000E1F0862F807C803C69F414968C911497A0
:101340008F7B14968C9314976F73623309F0B9CF27
:1013500064E6B7CF67FFF9CF14968C9114978D7F11
:1013600014968C9314976F77F0CF90E080E00895F7
:10137000CF93DF93DC01683808F16858FD01369699
:10138000CD014E96EF012991261761F08C179D072C
:10139000D1F790E080E02191211156C08A0F9B1F68
:1013A000FC01668390968C919097882321F0CD0163
:1013B00004960E94E00581E090E027C0862F90E02F
:1013C00067FF12C0FC01E058F10921E030E001C0E4
:1013D000220FEA95EAF714968C911497822B1496B3
:1013E0008C93149760E0CACF5E96ED91FC915F9765
:1013F000E80FF91F649161110BC081E090E0139632
:101400009C938E93129790E080E0DF91CF910895A6
:10141000862F807C803C69F414968C9114978064AC
:1014200014968C9314976F73623309F0A7CF64E618
:10143000A5CF67FFF9CF14968C911497826014960C
:101440008C9314976F77F0CF01968831910509F04E
:10145000A2CFD3CFEF92FF920F931F93CF93DF933F
:10146000EC01162F08A181E088A3CE010E94B809E3
:101470007C01612FCE010E945D0908A3C701992755
:10148000DF91CF911F910F91FF90EF9008952091E0
:10149000CC02260F3327331F21323105ECF4209183
:1014A000DA04FC0190E080E0243069F082E00895E5
:1014B000A091CC022191AC0144555D4FA40FB52FF2
:1014C000B11D2C930196861798F38091CC02680F7A
:1014D0006093CC0280E0089581E008951092DA04D0
:1014E00081E08093D9041092B40461E082E00E940C
:1014F000620361E083E00E946203E9EBF0E0808137
:101500008E7F808380818D7F808388E48093B80084
:1015100085E48093BC000895CF93DF9391E090938E
:10152000AB028823B9F0C091B800D091BA00809185
:10153000BC008A7B8093BC0060E082E00E94620372
:1015400060E083E00E9462030E946E0AD093BA00BA
:10155000C093B800DF91CF9108958F929F92AF9280
:10156000BF92CF92DF92EF92FF920F931F93CF9390
:10157000DF93D0910305D13208F0D7C0182FC09166
:1015800002050E94D7036B017C018091DA0481116E
:101590006BC082E08093DA041093D9048FEF8093BC
:1015A000D8041092D704D093D604A2EEB4E0E6EBB0
:1015B000F4E080E0D81391C01092B5048091B50496
:1015C000CC0FC82BC093B5048091B404813009F0CE
:1015D00088C01092B4040E94D7036B017C018091F3
:1015E000B5048093BB008091DC049091DD04A09150
:1015F000DE04B091DF04892B8A2B8B2BA1F00E9493
:10160000D7030091DC041091DD042091DE043091B9
:10161000DF046C197D098E099F0906171707280733
:10162000390708F442C08091BC0083FDD8CF85EC17
:101630008093BC000E94D7036B017C018091DA0487
:10164000823009F450C08091D8048F3F09F46FC0F4
:101650008091D804803209F46CC08091D804803322
:1016600009F469C084E026C08091DC049091DD0417
:10167000A091DE04B091DF04892B8A2B8B2B09F417
:1016800084CF0E94D7038090DC049090DD04A0906A
:10169000DE04B090DF046C197D098E099F0986165F
:1016A0009706A806B90608F070CF8091DB040E9467
:1016B0008C0A85E01092E104109203051092E00478
:1016C000DF91CF911F910F91FF90EF90DF90CF901E
:1016D000BF90AF909F908F9008959D9191938F5F51
:1016E00069CF85EEA5CF8091DC049091DD04A091B7
:1016F000DE04B091DF04892B8A2B8B2B09F49ECF5B
:101700000E94D7030091DC041091DD042091DE04D7
:101710003091DF046C197D098E099F0906171707A0
:101720002807390708F08ACFC0CF81E0C3CF80E017
:10173000C1CF82E0BFCF83E0BDCF0895E091B30475
:101740008091B204E81730F4F0E0E557FD4F808156
:1017500090E008958FEF9FEF08959091B3048091EA
:10176000B2042FEF3FEF981748F4E92FF0E0E55768
:10177000FD4F208130E09F5F9093B304C90108952D
:101780008091B2049091B304891B990B0895CF9274
:10179000DF92EF92FF920F931F93CF93DF937C0121
:1017A000CB018A012091E004222389F0EB016B0137
:1017B000C40ED51ECC15DD0569F06991D701ED91F8
:1017C000FC910190F081E02DC7010995F3CF642FC2
:1017D0000E94470AC801DF91CF911F910F91FF909E
:1017E000EF90DF90CF900895CF93DF931F92CDB706
:1017F000DEB769832091E0042223F9F020910305EC
:10180000203258F021E030E0FC013383228390E065
:1018100080E00F90DF91CF9108958091E104E82F4F
:10182000F0E0EE51FB4F998190838F5F8093E1044C
:101830008093030581E090E0ECCF61E0CE0101965A
:101840000E94470AF7CF90E080E00895FC0183856D
:101850008F3F19F061E00C9462030895FC018081D0
:101860009181892B39F0A281B3819C9111968C9141
:101870009CBD8DBD83858F3F19F060E00C946203A1
:101880000895AF92BF92CF92DF92EF92FF920F93A3
:101890001F93CF93DF93EC0188819981892B89F085
:1018A0006EBD0DB407FEFDCFBEB48B2DDF91CF9181
:1018B0001F910F91FF90EF90DF90CF90BF90AF906E
:1018C00008958885998511E0892B09F010E8AA24EC
:1018D000A394862F812309F0A12C062F2C813D8112
:1018E0004E815F8160E271EA87E090E00E940C34F3
:1018F000F22EB02EE12CC22ED12CFF2019F0C60101
:101900000E94CC038A85877F09F042C08D858F3F76
:1019100089F0902F912381E009F480E08A1551F03D
:10192000EF85F8898F89992369F19081892B8083CC
:10193000AA24A394E989FA898081998D892B8083CF
:10194000FF2019F0C6010E94CC038E858F3F39F02D
:10195000EB89FC898081988D892309F0E12AE98946
:10196000FA899081898D8095892380838E858F3F28
:1019700009F0BE2C88859985892BB9F5110F1111B5
:10198000BCCF93CF9081809589238083A12CD2CF27
:10199000E989FA898081998D892B8083FF2019F04C
:1019A000C6010E94CC038D858F3F49F0EF85F889F1
:1019B0008F89902F9123A9F09081892B8083E989C9
:1019C000FA899081898D8095892380838E858F3FC8
:1019D00069F2EB89FC898081988D892339F2E12AAB
:1019E000C5CF908180958923E9CF1695C8CF8F9276
:1019F0009F92AF92BF92CF92DF92EF92FF920F939E
:101A00001F93CF93DF937C014B016A01B22EA32E6B
:101A10000E942E0CE401C80CD91CCC15DD0569F41C
:101A2000CB2DDA2D0C0F1D1FC017D10759F06FEF0A
:101A3000C7010E94410C8993F7CF6991C7010E94A9
:101A4000410CEBCFC7010E94260C81E0DF91CF91C2
:101A50001F910F91FF90EF90DF90CF90BF90AF90CC
:101A60009F908F9008958F929F92AF92BF92CF9246
:101A7000DF92EF92FF920F931F93CF93DF937C013E
:101A8000B62EA72E6A0149010E942E0CE401080D12
:101A9000191DC017D10761F4CB2DDA2DCC0EDD1E38
:101AA000CC15DD0551F06991C7010E94410CF8CFBA
:101AB0006991C7010E94410CECCFC7010E94260C1E
:101AC00081E0DF91CF911F910F91FF90EF90DF9018
:101AD000CF90BF90AF909F908F9008951F93CF931A
:101AE000DF93EA01122FDC0111968D919C91DC01AC
:101AF000ED91FC910280F381E02D0995C817D9077B
:101B000029F4812F0E94AD0A91E0811190E0892F84
:101B1000DF91CF911F910895CF93DF93EC018B81DB
:101B20008823A1F0888191E09093E00480930205DE
:101B30001092E1041092030581E00E94AD0A91E049
:101B4000811190E0892FDF91CF9108951092B30415
:101B50001092B2041092E104109203050E946E0AE2
:101B60008AEE92E09093B1048093B0048BEE92E001
:101B70009093AF048093AE0481E08B83CE010E94EA
:101B80008C0D982F8111CECFDDCFAF92BF92CF9227
:101B9000DF92EF92FF920F931F93CF93DF9300D0CA
:101BA000CDB7DEB7DC01211103C01A962C911A972C
:101BB000253008F043C051964D935D936D937C930F
:101BC000549790E080E0E22EF12C8E159F05B4F43E
:101BD0001C962C911C9721110AC0FD01E80FF91FDA
:101BE0004587452F562F672F77270196EECFF701B0
:101BF000E81BF90BEA0FFB1F4487F3CF6D018DE063
:101C0000C80ED11C18969C91189719968C9119970B
:101C100099838A83AD90BC901197A114B10409F403
:101C200041C01B960C9110E098012E0D3F1DD5016F
:101C300014968D919C918217930710F480E016C042
:101C4000F50181819281208131E03093E00420937D
:101C500002051092E104109203050115110599F493
:101C600021E0A701B601C5010E946E0D0F900F90F3
:101C7000DF91CF911F910F91FF90EF90DF90CF9068
:101C8000BF90AF900895DC01ED91FC910280F3814B
:101C9000E02DA801BE016F5F7F4F09950817190756
:101CA00069F6DECF1296ED91FC911397309749F1CA
:101CB00016962D913C9117971B960C9110E02330AE
:101CC000310571F48E7F89839A830F5F1F4F9E01C8
:101CD0002F5F3F4FA701B601CF010E94330DC6CF42
:101CE0002115310519F49F779983F1CF2230310501
:101CF00011F49068F9CF2130310549F79F7790644E
:101D0000F3CF1496ED91FC911597309709F496CF87
:101D10008085882309F492CFA680B780A114B104EE
:101D200009F48CCF870196011B964C91BE016F5F21
:101D30007F4F81859285F501099598CFFC0170E070
:101D40008481893018F0660F771F642B828193811C
:101D5000892B41F0858190E0982F8827990F906416
:101D6000682B792BCB010895EF92FF920F931F936D
:101D7000CF93DF93CDB7DEB765970FB6F894DEBF8C
:101D80000FBECDBF7C018B0140E069E00E949E0E3A
:101D9000F70142815381208131811A8A1B8A1C8A72
:101DA0001D8A5C834B833A83298323E030E03887A4
:101DB0002F8321E02C879A8789871D8682E08B8775
:101DC000A80170E060E022E0CE0101960E94C50DFE
:101DD00065960FB6F894DEBF0FBECDBFDF91CF91F1
:101DE0001F910F91FF90EF900895EF92FF920F9344
:101DF0001F93DC01ED91FC919B012E0F3F1F60E0D2
:101E000070E0CB01519140ED450FA42F4A3058F0BE
:101E10004FE9450FA9EA463028F04FEB450F463011
:101E2000D8F4A9ECA50FAB01BC0184E0440F551F09
:101E3000661F771F8A95D1F78A2FAA0F990BAA0BD5
:101E4000BB0B7C018D01E40EF51E061F171FC80198
:101E5000B7012E173F07B1F61F910F91FF90EF903A
:101E600008958091890290918A02009749F020910B
:101E70008802222329F004960E94E005109288022D
:101E80000895682F8091890290918A02009739F015
:101E9000662329F00E945D0981E0809388020895FD
:101EA000682F8091890290918A02009739F0662309
:101EB00029F00E94B80981E0809388020895FC010E
:101EC00001900020E9F73197AF01481B590BBC0185
:101ED0008DE195E00C9435068F929F92AF92BF9260
:101EE0000F931F93CF93DF93CDB7DEB7A1970FB6B4
:101EF000F894DEBF0FBECDBF19A2423008F44AE00D
:101F00008E010F5D1F4F842E912CB12CA12CA501A9
:101F100094010E940C34E62FB901CA01EA30F4F4AE
:101F2000E05DD801EE938D01232B242B252B79F72F
:101F300090E080E0109719F0CD010E945F0FA1960C
:101F40000FB6F894DEBF0FBECDBFDF91CF911F91CA
:101F50000F91BF90AF909F908F900895E95CE1CF73
:101F6000CF93DF930E945F0FEC018BEF91E00E9413
:101F70005F0F8C0F9D1FDF91CF910895CF93DF935B
:101F80000E946106EC018BEF91E00E945F0F8C0FC5
:101F90009D1FDF91CF910895CF93DF93FC01448182
:101FA0005581608171818DE195E00E943506EC01DB
:101FB0008BEF91E00E945F0F8C0F9D1FDF91CF91FF
:101FC0000895682F70E090E080E040E10C946C0F81
:101FD000BC01990F880B990B40E10C946C0F0F9387
:101FE0001F93CF93DF938C0184EB90E00E946106F6
:101FF000C8010E94E80F82EB90E00E946106E801B0
:1020000083E0CC0FDD1F8A95E1F7C455DC4FFE015C
:10201000EB53FF4F808190E00E94E80F82EB90E04D
:102020000E946106FE01EA53FF4F80810E94E10F8A
:1020300082EB90E00E946106FE01E953FF4F808130
:102040000E94E10F82EB90E00E946106F80193E0AC
:10205000EE0FFF1F9A95E1F7EC58FB4F80810E942D
:10206000E10F82EB90E00E946106C753DF4F888149
:102070000E94E10F82EB90E00E94610626E0209F23
:10208000C001219F900D11248C549C4FDF91CF9162
:102090001F910F910C94B00FDF92EF92FF920F936C
:1020A0001F93CF93DF93EC018CEA90E00E946106CE
:1020B000CE010E94E80F82EB90E00E94610686E06C
:1020C000D82EDC9E8001DD9E100D1124C8018455A0
:1020D0009C4F7C01FC01858190E00E94E80F82EB1F
:1020E00090E00E9461062196DC9EF001DD9EF00DDD
:1020F0001124E455FC4F80810E94E10F82EB90E0B7
:102100000E946106F70187810E94E10F82EB90E057
:102110000E946106C8018C549C4FDF91CF911F91A2
:102120000F91FF90EF90DF900C94B00F2F923F92A1
:102130004F925F926F927F928F929F92AF92BF92D7
:10214000CF92DF92EF92FF920F931F93CF93DF9383
:1021500000D000D01F92CDB7DEB77C01DC011A960B
:102160000C914C01BDE08B0E911CFC01908581858A
:1021700099838A83208031802114310409F424C199
:10218000438550E0D10114968D919C911597841749
:10219000950708F48CC18C9191E09093E0048093B2
:1021A00002051092E1041092030520E0BE016F5F6A
:1021B0007F4FC1010E946E0D882309F478C1E02F82
:1021C000F0E0FC83EB83B12CA12C01E08B819C819E
:1021D000A816B90608F019C1D10114968D919C91E9
:1021E000CB80DC80CA18DB088C159D0508F46C01D7
:1021F000F101F081FD830E94D7032B013C01809106
:10220000DA04811172C01C2D113208F010E2009323
:10221000DA0421E08B819C818C199D09A816B906EE
:1022200008F420E02093D9048FEF8093D804109213
:10223000D704810F8093D6040093B5049091B50420
:102240008D81880F892B8093B5048091B4048130EF
:1022500009F091C01092B4040E94D7032B013C01F5
:102260008091B5048093BB008091DC049091DD04E3
:10227000A091DE04B091DF04892B8A2B8B2BA1F077
:102280000E94D7032091DC043091DD044091DE04EC
:102290005091DF04641975098609970926173707D5
:1022A0004807590708F442C08091BC0083FDD8CF8D
:1022B00095EC9093BC000E94D7032B013C018091C8
:1022C000DA04813009F45BC08091D704811710F4DF
:1022D0001091D704E6EBF4E0ABE8B2E080E08117C0
:1022E00051F191919D938F5FFACF8091DC04909191
:1022F000DD04A091DE04B091DF04892B8A2B8B2BA7
:1023000009F47DCF0E94D7032091DC043091DD04D5
:102310004091DE045091DF0464197509860997091C
:10232000261737074807590708F069CF8091DB0463
:102330000E948C0A10E01092B3041093B2041C1592
:102340001D0409F0B4C034016A0C7B1C2301C201D6
:10235000861997098C159D05A0F5F101818192815F
:10236000DC01ED91FC910284F385E02D0995F201E9
:1023700081932F01ECCFA5EEA093BC009CCF809160
:10238000DC049091DD04A091DE04B091DF04892B80
:102390008A2B8B2B09F493CF0E94D7032091DC0466
:1023A0003091DD044091DE045091DF046419750919
:1023B00086099709261737074807590708F07FCF7E
:1023C000B5CFAC0CBD1C02CFD7010280F381E02D4C
:1023D000309709F44AC016962D913C91179710E05A
:1023E0001B964C9150E02330310579F5816089834B
:1023F0009A834F5F5F4F9401BE016F5F7F4FCF01A4
:102400000E94F70C882309F452C0D7011A964C9108
:1024100050E030E020E060E070E0CB0124173507A9
:102420000CF048C0982F872F762F6627D7011C966F
:10243000EC91E11137C0FA01E21BF30BEE0DFF1D29
:10244000E4856E2B2F5F3F4FE9CF2115310519F43D
:1024500090689983D0CF2230310511F49F77F9CF5E
:102460002130310541F6906CF4CFF701A481B5819C
:102470001097E9F018968C9118978823C1F014965C
:10248000CD90DC901597C114D10489F010E094012F
:102490004385BE016F5F7F4F19968D919C91F60128
:1024A0000995B0CFF701E20FF31FE585CACF6FEFB3
:1024B0007FEFCB010F900F900F900F900F90DF9157
:1024C000CF911F910F91FF90EF90DF90CF90BF9031
:1024D000AF909F908F907F906F905F904F903F90C4
:1024E0002F9008958F929F92AF92BF92CF92DF92DA
:1024F000EF92FF920F931F93CF93DF93EC014A016A
:102500005B01888199810E9496102A8101E010E088
:1025100002C0000F111F2A95E2F701501109012E88
:10252000000C220B330BAB81680179010A2E04C029
:10253000CC0CDD1CEE1CFF1C0A94D2F7C094D09486
:10254000E094F094C622D722E822F922E881F981AA
:10255000B901A801482159216A217B2104C0440FF7
:10256000551F661F771FAA95D2F74C295D296E2942
:102570007F292285CF01DF91CF911F910F91FF908D
:10258000EF90DF90CF90BF90AF909F908F900C9482
:10259000C50DEF92FF921F93CF93DF93CDB7DEB7B8
:1025A00069970FB6F894DEBF0FBECDBF7C01162F22
:1025B00041E0683008F440E069E0C7010E949E0EE7
:1025C000F70142815381208131811A8A1B8A1C8A3A
:1025D0001D8A5C834B833A83298323E030E038876C
:1025E0002F8321E02C879A8789871D862B87CE0130
:1025F00001969F8B8E8B288F1770198F40E050E0CB
:10260000BA0145960E94721269960FB6F894DEBF21
:102610000FBECDBFDF91CF911F91FF90EF90089536
:102620006F927F928F929F92AF92BF92CF92DF92E2
:10263000EF92FF920F931F93CF93DF93CDB7DEB747
:10264000E2970FB6F894DEBF0FBECDBF7C01062F18
:10265000642E77247394683008F4712C472D60E061
:10266000C7010E949E0EF70182809380A080B180F6
:102670001A8A1B8A1C8A1D8A9C828B82BA82A98232
:1026800023E0C22ED12CD886CF8211E01C879A87F6
:1026900089871D861B87472D66E0C7010E949E0E15
:1026A0001FA218A619A61AA6998E888EBF8AAE8A6E
:1026B000DD8ECC8E19A39F8F8E8F1AA218A3077060
:1026C000CE0101969CA78BA71DA70EA7459698AB98
:1026D0008FA719AB0AAB41E050E060E070E0F1E099
:1026E0006F1203C040E050E0BA01CE018B960E9409
:1026F000721241E050E060E070E082E0681619F08C
:1027000040E050E0BA01CE018F960E947212E2962C
:102710000FB6F894DEBF0FBECDBFDF91CF911F91F2
:102720000F91FF90EF90DF90CF90BF90AF909F9070
:102730008F907F906F9008950F931F93CF93DF93A7
:10274000CDB7DEB765970FB6F894DEBF0FBECDBF2D
:102750008C0140E069E00E949E0EF80142815381A5
:10276000208131811A8A1B8A1C8A1D8A5C834B83D3
:102770003A83298323E030E038872F8321E02C87B8
:102780009A8789871D8682E08B87CE0101960E94F9
:102790009610CB0165960FB6F894DEBF0FBECDBF85
:1027A000DF91CF911F910F9108950F931F93CF93B6
:1027B000DF9363E58DE195E00E944B068CE893E0A2
:1027C0000E946106609132037091330390E080E0D3
:1027D00040E10E946C0F85E893E00E9461066091E1
:1027E00034037091350390E080E040E10E946C0F6B
:1027F0008FE793E00E94610660913003709131038E
:1028000090E080E040E10E946C0F8AE793E00E9434
:102810006106CBE5D3E0899199910E94E80F88E7A2
:1028200093E00E94610683E0C336D807A1F784E7EE
:1028300093E00E946106C8EAD3E0899190E00E948B
:10284000E80F88E793E00E94610683E0CC3AD8075E
:10285000A1F780E793E00E946106C4EAD3E008EAAA
:1028600013E089910E94E10F88E793E00E946106DE
:102870000C171D07B1F789E693E00E94610660918D
:1028800095047091960490E080E04AE00E946C0FFD
:102890008BEF91E0DF91CF911F910F910C945F0F1F
:1028A000FF920F931F93CF93DF938C01F62E86E058
:1028B00090E00E946B34EC01F8828DE695E09A83FB
:1028C00089831B8280E290E09D838C83F801D18311
:1028D000C0831092B3041092B2041092E1041092DB
:1028E00003050E946E0A8AEE92E09093B1048093F1
:1028F000B0048BEE92E09093AF048093AE0481E03D
:102900008B83CE01DF91CF911F910F91FF900C949B
:102910008C0DFC0124813581232B31F421E0FB0156
:10292000672B49F4822F089580819181611571058B
:1029300039F421E0FC0180818823A1F320E0F2CF6B
:102940000E94613621E0892B69F3F8CF0F931F9322
:10295000CF93DF938C01EB01FC0180819181009783
:10296000E1F06881798161157105A9F04281538197
:102970002C813D814217530770F00E946A368C818A
:102980009D81F801958384831D821C82DF91CF9104
:102990001F910F9108950E94073588819981F80150
:1029A000918380838A819B81938382838C819D81A3
:1029B00095838483198218821B821A82E5CFCF9374
:1029C000DF93EC0188819981009711F00E9407350F
:1029D000198218821D821C821B821A82DF91CF917C
:1029E0000895FC0180819181009711F00C940735C6
:1029F00008950F931F93CF93DF93EC018881998102
:102A0000009759F02A813B812617370730F081E083
:102A1000DF91CF911F910F9108958B016F5F7F4FD1
:102A20000E949035009759F0998388831B830A830D
:102A30002C813D81232B59F7FC011082E8CF80E0E7
:102A4000E7CFEF92FF920F931F93CF93DF93611520
:102A5000710541F480E0DF91CF911F910F91FF90BC
:102A6000EF90089541155105B1F07B01EC010C8107
:102A70001D81040F151FB8010E94F914882351F31A
:102A8000288139818C819D81B701820F931F0E941B
:102A90006A361D830C8381E0DECFCF93DF93EC0198
:102AA000FB0144815581608171810E942115811152
:102AB00003C0CE010E94DF14CE01DF91CF910895B3
:102AC000EF92FF920F931F93CF93DF93EC018B0153
:102AD000CB010E942C337C01BC01CE010E94F91471
:102AE00081110BC0CE010E94DF14CE01DF91CF9186
:102AF0001F910F91FF90EF900895FD82EC82B80135
:102B0000888199810E942533F0CFEF92FF920F9335
:102B10001F93CF93DF93EC017B018A01BA010E94DE
:102B2000F91481110BC0CE010E94DF14CE01DF9198
:102B3000CF911F910F91FF90EF9008951D830C830B
:102B4000B701888199810E946A36F0CFFB0101901C
:102B50000020E9F73197AF01461B570B0C94851500
:102B6000CF93DF93EC01FB018617970749F0608153
:102B700071816115710541F0448155810E9485156F
:102B8000CE01DF91CF9108950E94DF14F9CFFC01AF
:102B900011821082138212821582148261157105CE
:102BA00051F0FB0101900020E9F73197AF01461B7E
:102BB000570B0C9485150895AF92BF92CF92DF9278
:102BC000EF92FF920F931F93CF93DF936C015B0102
:102BD0007A0189012417350720F48F2D7901042FFC
:102BE000182F6DEF71E0C6010E94C715D50114962C
:102BF000CD91DC91EC16FD06E0F40C171D0708F4EE
:102C0000E801D501ED91FC911197EC0FFD1F1081AA
:102C100010826D917C916E0D7F1DC601611571054D
:102C2000A1F00E94A615F50180819181C80FD91FDE
:102C30001883C601DF91CF911F910F91FF90EF9004
:102C4000DF90CF90BF90AF9008950E94DF14EBCF3C
:102C50004F925F926F927F928F929F92AF92BF92AC
:102C6000CF92DF92EF92FF920F931F93CF93DF9358
:102C7000CDB7DEB768970FB6F894DEBF0FBECDBFF5
:102C80006C017B0149015A016DEF71E0CE010D9697
:102C90000E94C715F6014481558160817181CE0182
:102CA0000D960E942115F701448155816081718143
:102CB000CE010D960E94211543E050E06EEF71E0C9
:102CC000CE010D960E9421156DEF71E0CE01439665
:102CD0000E94C7152801012E000C66087708B8016C
:102CE000CE0143960E94F914C12CD12C7601D50156
:102CF000C4018F709927AA27BB278E5A9E4FFC01CB
:102D0000808118861F821A8619861C861B868983F5
:102D10001A82BE016F5F7F4FCE0107960E94A615F3
:102D20001A8219821C821B821E821D82BE01695F6B
:102D30007F4FCE0101960E94B015BE016D5E7F4FA0
:102D4000CE0101960E944D15BC01CE0143960E9412
:102D5000B015CE0101960E94F114CE0107960E9493
:102D6000F11484E0B694A794979487948A95D1F748
:102D7000D701C6010297A109B109840D951DA61DB1
:102D8000B71DF1E0CF1AD108E108F108B7FFAFCFC6
:102D90004F89588D6B897C89CE010D960E94211533
:102DA0006DE48DE195E00E944B06CE010D960E94E8
:102DB000CC0FCE0143960E94F114CE010D960E94D5
:102DC000F11468960FB6F894DEBF0FBECDBFDF9149
:102DD000CF911F910F91FF90EF90DF90CF90BF9018
:102DE000AF909F908F907F906F905F904F900895DD
:102DF0008F929F92AF92BF92CF92DF92EF92FF920B
:102E00000F931F93CF93DF9300D000D000D0CDB7A6
:102E1000DEB77C0184E6C82E81E0D82E10E000E009
:102E2000F60160817181C7010E948914882309F429
:102E300061C085E0809FF001819FF00D1124EC5965
:102E4000FE4F8281843090F40380F481E02D823043
:102E5000B8F080809180B12CA12C6DEF71E0CE0193
:102E600001960E94C71504E010E016C0843091F16D
:102E70008CE694E00E946106C7010E94CC0F17C047
:102E80008080912CB12CA12C6DEF71E0CE010196C8
:102E90000E94C71502E010E0A5019401B701CE0120
:102EA00001960E942816CE0101960E94F1142696E2
:102EB0000FB6F894DEBF0FBECDBFDF91CF911F914B
:102EC0000F91FF90EF90DF90CF90BF90AF909F90C9
:102ED0008F9008950380F481E02D80809180A280FE
:102EE000B3806DEF71E0CE0101960E94C71508E036
:102EF00010E0D2CF0F5F1F4FF5E0CF0ED11C07308F
:102F0000110509F08DCF82E993E0B4CF0F931F93A1
:102F1000CF93DF93CDB7DEB762970FB6F894DEBFDD
:102F20000FBECDBF8C01CB01F8011182108213823C
:102F300012821582148250E0BE016F5F7F4F0E94A3
:102F40004933BE016F5F7F4FC8010E94A61562968C
:102F50000FB6F894DEBF0FBECDBFDF91CF911F91AA
:102F60000F9108958F929F92AF92BF92EF92FF922E
:102F70000F931F93CF93DF93CDB7DEB768970FB64C
:102F8000F894DEBF0FBECDBF4AE067E070E0CE012F
:102F900043960E9486174AE068E070E0CE010D96E5
:102FA0000E9486171A8219821C821B821E821D8231
:102FB0006CEC73E0CE0101960E94601518861F82AA
:102FC0001A8619861C861B86BE016F5F7F4FCE0155
:102FD00007960E94B015BE01635F7F4FCE01079632
:102FE0000E944D158C01FC01E480F580FFEFEF1A83
:102FF000FF0AB7010E94F914882309F4A5C0F8015B
:1030000020813181848195816AEC73E0820F931F66
:103010000E942533F801F582E482BE016D5E7F4F88
:10302000C8010E944D150E94CC0FCE0107960E9448
:10303000F114CE0101960E94F114CE010D960E946A
:10304000F114CE0143960E94F1140BEA11E0F8014D
:10305000E080F1801A8219821C821B821E821D82EE
:1030600064EC73E0CE0101960E94601518861F8201
:103070001A8619861C861B86BE016F5F7F4FCE01A4
:1030800007960E94B015E114F10409F061C0CE0169
:1030900007960E94DF14CE0107960E94CC0FCE0146
:1030A00007960E94F114CE0101960E94F1140C5F64
:1030B0001F4FF1E00B3C1F0751F684E6E82E81E03C
:1030C000F82EF7018280912CB12CA12C60817181A6
:1030D000CE0107960E94C7151A8219821C821B8294
:1030E0001E821D826FEB73E0CE0101960E94601577
:1030F00002E010E0A5019401BE01695F7F4FCE019F
:1031000001960E942816CE0101960E94F114CE016C
:1031100007960E94F114F5E0EF0EF11C87E8E8161F
:1031200081E0F80671F668960FB6F894DEBF0FBE20
:10313000CDBFDF91CF911F910F91FF90EF90BF9086
:10314000AF909F908F900895C8010E94DF1465CFC3
:10315000F70101900020E9F73197AF014E195F099F
:10316000B701CE0107960E942115882309F48FCF5D
:1031700092CF2F923F924F925F926F927F928F9257
:103180009F92AF92BF92CF92DF92EF92FF920F93F6
:103190001F93CF93DF9300D000D0CDB7DEB73C01B3
:1031A0002DB73EB73C832B838F569F4F9A838983DD
:1031B000FC018081281B31090FB6F8943EBF0FBE79
:1031C0002DBF8DB79EB701962C01F30124A8312C99
:1031D000DC0190E080E0F301821593054CF420A916
:1031E00031A9F901E80FF91F20812D930196F3CF42
:1031F00085A9882341F184A595A528E097FD09C0FC
:1032000068E671E00E943D346DE270E00E943D345A
:10321000262FF30186A597A568E097FD08C068E60C
:1032200071E00E943D346DE270E00E943D34F20195
:10323000E20DF31D30E1639FB0011124262B2083A2
:10324000C10101961C014201820C931CF301A4AC44
:10325000B5ACC6ACD7ACE0ACF1AC02AD13AD2081DF
:1032600031814281538166A96170C3010E94E806E1
:10327000280E391E4201820C931CF301EC5BFF4FB8
:10328000A080B180C280D3803497E080F180028139
:103290001381F301248135814681578166A96695A2
:1032A0006170C3010E94E806280E391E4201820C9B
:1032B000931CF301E45BFF4FA080B180C280D380F8
:1032C0003497E080F18002811381F30120853185FC
:1032D0004285538566A962FB662760F9C3010E9497
:1032E000E806280E391E4201820C931CF301EC5AA9
:1032F000FF4FA080B180C280D3803497E080F180FE
:1033000002811381F301248535854685578566A999
:1033100063FB662760F9C3010E94E806280E391E88
:103320004201820C931CF301E45AFF4FA080B1804C
:10333000C280D3803497E080F18002811381F30151
:10334000208931894289538966A962956170C301D8
:103350000E94E806280E391E4201820C931CF301DC
:10336000EC59FF4FA080B180C280D3803497E080B9
:10337000F18002811381F3012489358946895789B7
:1033800066A965FB662760F9C3010E94E806280E5E
:10339000391E4201820C931CF301E459FF4FA080B7
:1033A000B180C280D3803497E080F18002811381A4
:1033B000F301248D358D468D578D67A96170C3014A
:1033C0000E94E806280E391E4201820C931CF3016C
:1033D000EC58FF4FA080B180C280D3803497E0804A
:1033E000F18002811381F301208D318D428D538D47
:1033F00067A966956170C3010E94E806280E391E10
:103400004201820C931CF301E458FF4FA080B1806D
:10341000C280D3803497E080F18002811381F30170
:1034200020A131A142A153A167A962FB662760F9DF
:10343000C3010E94E806280E391E4201820C931C2B
:10344000F301EC57FF4FA080B180C280D380349746
:10345000E080F18002811381F30124A135A146A10E
:1034600057A167A963FB662760F9C3010E94E806BC
:10347000280E391E4201820C931CF301E457FF4FC2
:10348000A080B180C280D3803497E080F180028137
:103490001381F30120A531A542A553A567A9629523
:1034A0006170C3010E94E8060E9438084C01E9815E
:1034B000FA814081F301E057FF4F808150E03A01EB
:1034C000FFEF6F1A7F0A2DB73EB7261937090FB6DF
:1034D000F8943EBF0FBE2DBF0DB71EB70F5F1F4F35
:1034E000EDB7FEB78183B201C80101960E944D3647
:1034F000F4018381A301B80180640E94B0042B8190
:103500003C810FB6F8943EBF0FBE2DBF0F900F90B9
:103510000F900F90DF91CF911F910F91FF90EF903F
:10352000DF90CF90BF90AF909F908F907F906F90E3
:103530005F904F903F902F9008951092A303809139
:10354000570390915803009711F00E94B918809189
:10355000590390915A03009711F00C94B9180895EB
:10356000CF93DF93482F50E09A01220F232F221F81
:10357000330BF901EE0FFF1FE95AFC4FA081B18117
:103580001097E9F175E0559547957A95E1F7437005
:10359000982F9F70E42FF0E0220F331F220F331F6C
:1035A000E901CE58DD4FCE0FDF1F8881662351F130
:1035B000982B9883D5968C91D5974817E8F4EF010E
:1035C0006696CC0FDD1FCA0FDB1F2E583D4FE20F52
:1035D000F31FE081EF70F0E0EE0FFF1FEA5DFE4F9A
:1035E0008081918199838883D2968C91D297882308
:1035F00019F0CD010E94B91881E08093A303DF91F7
:10360000CF91089590959823D4CFE82FF0E0EE0F56
:10361000EF2FEE1FFF0BEE0FFF1FE95AFC4FA081AB
:10362000B181109761F1E82FEF77D3969C91D397F2
:10363000E91710F5E695E695E695D0962D913C9123
:10364000D197E20FF32FF11D877041E050E060E069
:1036500070E004C0440F551F661F771F8A95D2F78C
:103660004095808148234083D2968C91D2978823BD
:1036700019F0CD010E94B91881E08093A303089549
:10368000E82FF0E0EE0FEF2FEE1FFF0BEE0FFF1F06
:10369000E95AFC4FA081B181109759F1E82FEF77DB
:1036A000D3969C91D397E91708F5E695E695E695AC
:1036B000D0962D913C91D197E20FF32FF11D877099
:1036C00041E050E060E070E004C0440F551F661F09
:1036D000771F8A95D2F78081842B8083D2968C9134
:1036E000D297882319F0CD010E94B91881E0809308
:1036F000A30308959B01BC016F5E7F4F44E150E03E
:10370000C9010E94353308952F923F924F925F92E4
:103710006F927F928F929F92AF92BF92CF92DF92E1
:10372000EF92FF920F931F93CF93DF93CDB7DEB746
:10373000CD5AD1090FB6F894DEBF0FBECDBF27E535
:1037400033E0C955DF4F39832883C75AD04034E06E
:10375000CA55DF4F3883C65AD040992493944424E5
:103760004A94B3E05B2E612C712CAE0149565F4F39
:10377000CE55DF4F59834883C25AD04082E990E04A
:103780000E946B348C018091920421E0883008F40F
:1037900020E031E0873008F430E041E0863008F482
:1037A00040E051E0853008F450E061E0843008F4F6
:1037B00060E071E0833008F470E0E1E0823008F40A
:1037C000E0E091E0811101C090E0D09093048090FE
:1037D0009104D801D1961C921E92D097D4961C9237
:1037E000D497D8961D921D921D921C92DB97DC9661
:1037F0004D925D926D927C92DF97A05CBF4F1D92BF
:103800001D921D921C92139714964D925D926D928B
:103810007C92139714961D921D921D921C921397E1
:1038200014964D925D926D927C92139714961D9210
:103830001D921D921C92139714964D925D926D925B
:103840007C92139714961D921D921D921C921397B1
:1038500014964D925D926D927C92139714961D92E0
:103860001D921D921C92139714964D925D926D922B
:103870007C92139714961D921D921D921C92139781
:1038800014964D925D926D927C92139714961D92B0
:103890001D921D921C92139714964D925D926D92FB
:1038A0007C92139714961D921D921D921C92139751
:1038B00014964D925D926D927C92139714961D9280
:1038C0001D921D921C92139714964D925D926D92CB
:1038D0007C92139714961D921D921D921C92139721
:1038E00014964D925D926D927C9213971496CA55E0
:1038F000DF4FA880C65AD040AC92D801D3968C92A4
:10390000D397D596DC92882309F432C4A1E0F2E083
:10391000823008F4F0E0FA2BA4E0833008F4A0E051
:10392000FA2BA8E0843008F4A0E0FA2BA0E185305F
:1039300008F4A0E0FA2BA0E2863008F4A0E0FA2B0D
:10394000D801D696FC93873008F414C4A1E0F2E0C5
:10395000883008F4F0E0FA2BD801D796FC93F82DC4
:10396000F77019F0A8E0AF1BFA2F9E0F790F670FC1
:10397000560F252E240EC32EC20E922D9C0D990F8C
:10398000C755DF4F9883C95AD04095E099839A82F2
:1039900029E02B839C8331EA3D839E8235E83F8377
:1039A000CA55DF4FA880C65AD040A886882009F49F
:1039B000E3C399872A8799E19B879C8699E29D8733
:1039C0008E8695E19F87188A95E2998B9A8A35E7CA
:1039D0003B8B9C8A25E92D8B8E8A95E59F8B188ED3
:1039E00095E6998F1A8E91E89B8F42E04C8FFF23CA
:1039F00009F4C5C33D8F9E8E2F8FF8A399A393E042
:103A00009AA322E230E0211004C07901DD2009F4FC
:103A100027C295E0E1E0F0E0EC0FFD1FE20FF31F9D
:103A20009083790142E0E40EF11CE2E0F0E0EC0F5B
:103A3000FD1FE20FF31F9082DD2009F425C161E034
:103A400070E06C0F7D1FE60EF71EE9E0D701EC93E6
:103A5000E4E0F0E0EC0FFD1FE20FF31FA9E3AA2E54
:103A6000A082E5E0F0E0EC0FFD1FE20FF31FB5E1EF
:103A7000BB2EB082E6E0F0E0EC0FFD1FE20FF31F7B
:103A80001082E7E0F0E0EC0FFD1FE20FF31F45E2CC
:103A90004083FE01E20FF31F57E05087FE01E20F63
:103AA000F31F65E36187FE01E20FF31F1286FE013B
:103AB000E20FF31F76E47387FE01E20FF31F9BE32F
:103AC0009487FE01E20FF31F9586FE01E20FF31FBC
:103AD000A5E6A687FE01E20FF31FB4E1B787FE015A
:103AE000E20FF31F95E7A92EA08A44E0342EFE01D1
:103AF000E20FF31F318AFE01E20FF31F55E9B52EE5
:103B0000B28AFE01E20FF31F938A91E8FE01E20FF1
:103B1000F31F948BFE01E20FF31F42E0458B790106
:103B20005BE1E50EF11C590165E1A60EB11CA1E0B7
:103B3000B0E0AC0FBD1FAA0DBB1DC655DF4FB9834A
:103B4000A883CA5AD040A9014A5E5F4FE1E0F0E085
:103B5000EC0FFD1FE40FF51FCC55DF4FF983E88311
:103B6000C45AD040B901695E7F4FAA24A394B12CF6
:103B7000AC0EBD1E6A0D7B1D4E5F5F4F4A0D5B1D77
:103B8000D9015996F501EA0FFB1FC455DF4FF983A0
:103B9000E883CC5AD040F9017A96AA24A394B12C98
:103BA000AC0EBD1EEA0DFB1DBB24B394BD1408F082
:103BB000E9C2A9E0AA2EC655DF4FA881B981CA5A29
:103BC000D040AC92B9E3AB2ECC55DF4FA881B98180
:103BD000C45AD040AC92A5E1AA2EDB01AC92DA0126
:103BE0001C92B5E2AB2EC455DF4FA881B981CC5AE7
:103BF000D040AC9247E0B42EB08241E050E04C0F90
:103C00005D1FE40EF51EE5E3D701EC93FE01E20F24
:103C1000F31F158EFE01E20FF31F56E4A52EA68EAC
:103C2000FE01E20FF31F6BE3B62EB78EFE01E20F2B
:103C3000F31F90A2FE01E20FF31F75E6D72ED1A26B
:103C4000FE01E20FF31F44E142A3FE01E20FF31F66
:103C500055E753A3FE01E20FF31F34A2FE01E20F6A
:103C6000F31F65E965A3FE01E20FF31F96A2FE01B3
:103C7000E20FF31F97A3790178E2E70EF11C9F0191
:103C8000E2E0D9019896EC93222009F4E9C099E08A
:103C9000E1E0F0E0EC0FFD1FEE0DFF1D9083E2E090
:103CA000F0E0EC0FFD1FEE0DFF1D908225E1E3E03B
:103CB000F0E0EC0FFD1FEE0DFF1D2083E4E0F0E0CF
:103CC000EC0FFD1FEE0DFF1D108227E2E5E0F0E096
:103CD000EC0FFD1FEE0DFF1D20832FEFE6E0F0E05F
:103CE000EC0FFD1FEE0DFF1D2083E7E0F0E0EC0F71
:103CF000FD1FEE0DFF1D2083FE01EE0DFF1D108642
:103D0000FE01EE0DFF1D118625E7FE01EE0DFF1DE4
:103D1000228720E1FE01EE0DFF1D238725E9FE012C
:103D2000EE0DFF1D2487FE01EE0DFF1D258621EA05
:103D3000FE01EE0DFF1D26879701215F3F4FFE011B
:103D4000EE0DFF1D1786882309F46CC0E1E0F0E05A
:103D5000EC0FFD1F2E0F3F1FD9019C9397012F5E83
:103D60003F4F40E3FE01EE0DFF1D418B823008F412
:103D700059C0E1E0F0E0EC0FFD1F2E0F3F1FD9010D
:103D80009C9397012D5E3F4F41E3FE01EE0DFF1D19
:103D9000438B833008F446C0E1E0F0E0EC0FFD1FF8
:103DA0002E0F3F1FD9019C9397012B5E3F4F42E39B
:103DB000FE01EE0DFF1D458B8430A0F1E1E0F0E047
:103DC000EC0FFD1F2E0F3F1FD9019C939701295E19
:103DD0003F4F43E3FE01EE0DFF1D478B853010F191
:103DE000E1E0F0E0EC0FFD1F2E0F3F1FD9019C9387
:103DF0009701275E3F4F44E3FE01EE0DFF1D418F0B
:103E0000863080F0E1E0F0E0EC0FFD1F2E0F3F1F49
:103E1000D9019C939701255E3F4FEC0EFD1E95E363
:103E2000F701938FE1E0F0E0EC0FFD1FE20FF31FCD
:103E300091E89083E2E0F0E0EC0FFD1FE20FF31F4A
:103E400092E090837901F3E0EF0EF11C93E0A92E4C
:103E5000B12CAC0EBD1E2A0D3B1D90ECD9019C93DC
:103E6000CC2009F4A0C095E0E1E0F0E0EC0FFD1FEC
:103E7000EE0DFF1D908392E0E2E0F0E0EC0FFD1FFD
:103E8000EE0DFF1D908395E1E3E0F0E0EC0FFD1FE8
:103E9000EE0DFF1D9083E4E0F0E0EC0FFD1FEE0D52
:103EA000FF1D108297E2E5E0F0E0EC0FFD1FEE0D44
:103EB000FF1D90839FEFE6E0F0E0EC0FFD1FEE0D9D
:103EC000FF1D9083E7E0F0E0EC0FFD1FEE0DFF1DFE
:103ED0009083FE01EE0DFF1D1086FE01EE0DFF1D0D
:103EE000118695E7FE01EE0DFF1D928790E1FE0120
:103EF000EE0DFF1D938795E9FE01EE0DFF1D9487E2
:103F0000FE01EE0DFF1DC58691EAFE01EE0DFF1DBF
:103F100096879701215F3F4FFE01EE0DFF1D17862B
:103F2000873018F1E1E0F0E0EC0FFD1F2E0F3F1F8E
:103F300099E0D9019C9397012F5E3F4F4AEBFE0118
:103F4000EE0DFF1D418B883080F0E1E0F0E0EC0FDA
:103F5000FD1F2E0F3F1FD9019C9397012D5E3F4FF0
:103F6000EC0EFD1E8BEBF701838BE1E0F0E0EC0F34
:103F7000FD1FE20FF31F81E88083E2E0F0E0EC0F29
:103F8000FD1FE20FF31F82E080837901F3E0EF0E63
:103F9000F11C83E0A82EB12CAC0EBD1E2A0D3B1DDA
:103FA00080ECD9018C93E1E0F0E0EC0FFD1FEE0D09
:103FB000FF1D80EC8083BFEFEB1AFB0AC7010E9454
:103FC0006B345C01A701BE016F5F7F4F0E944D36CD
:103FD00087E090E00E946B346C01FC01118210823A
:103FE000B382A282F582E48216820E943808FC0124
:103FF000A385B485109709F0E6C0D486C38685856D
:104000009685D60114962D913C91820F931F968729
:1040100085878BE0E2E0F2E0DE01A956BF4F019018
:104020000D928A95E1F7CE55DF4FE881F981C25AAA
:10403000D04001900020E9F73297CA55DF4F8881C0
:10404000C65AD040825D80830E94380844E150E027
:10405000BE0169567F4F41960E9435338820C1F0DA
:10406000F80193A9892F869586958695977009F012
:10407000B2C084ABF80184A990E0009711F481E00C
:1040800090E00E946B34D801D1969C938E93D09788
:10409000F801EF56FF4F81E0D801D5969C91911120
:1040A00001C080E0D801D4969C91D497C755DF4FCA
:1040B000A880C95AD0409A0D890F80831D921D9205
:1040C0001D921C921397F801148215821682178292
:1040D00018961D921D921D921C921B971486158690
:1040E0001686178650961D921D921D921C9253970C
:1040F000148A158A168A178A58961D921D921D9247
:104100001C925B97148E158E168E178E90961D92AC
:104110001D921D921C92939714A215A216A217A28B
:1041200098961D921D921D921C929B978FEF9FEF68
:104130009D969C938E939C979F969C938E939E970F
:1041400090E080E0F80124A92817190609F00CF482
:1041500045C000A8F1A9E02DE80FF91F10820196D3
:10416000F1CF55E0CA55DF4F5883C65AD04006CB31
:10417000A0E0D0CBA0E0EECB28E030E044CC2CE1B6
:1041800030E041CC25E7A22EC655DF4FA881B9818A
:10419000CA5AD040AC92CC55DF4FA881B981C45ADD
:1041A000D0409C9235E9A32EDB01AC92DA013C921F
:1041B000C455DF4FA881B981CC5AD0409C9393E07D
:1041C000908362CDDC018D919C9111970097D1F77E
:1041D000CD92DC9214CF8F5F84AB4CCFC955DF4FAB
:1041E000A881B981C75AD0400D931D93C955DF4F9F
:1041F000B983A883C75AD04010AE11AE12AE13AE29
:1042000044AE55AE66AE77AEE05CFF4F10821182D1
:104210001282138234964082518262827382349673
:1042200010821182128213823496408251826282FD
:1042300073823496108211821282138234964082E5
:1042400051826282738234961082118212821382AA
:104250003496408251826282738234961082118237
:104260001282138234964082518262827382349623
:1042700010821182128213823496408251826282AD
:104280007382349610821182128213823496408295
:10429000518262827382F80112AACA55DF4FF881F7
:1042A000C65AD040F53009F05CCFC355DF4F0FB68A
:1042B000F894DEBF0FBECDBFDF91CF911F910F915C
:1042C000FF90EF90DF90CF90BF90AF909F908F9036
:1042D0007F906F905F904F903F902F90089585ED65
:1042E0008093BC008091DC049091DD04A091DE04F9
:1042F000B091DF040796A11DB11D23E0B695A795E7
:10430000979587952A95D1F72091BC0024FD03C08D
:104310001092DA0408954091DC045091DD0460911C
:10432000DE047091DF04452B462B472B69F3009781
:10433000A105B10541F02AE22A95F1F700C00197E5
:10434000A109B109E1CF8091DB040C948C0A6F9232
:104350007F928F929F92AF92BF92CF92DF92EF9215
:10436000FF920F931F93CF93DF93CDB7DEB72C97B8
:104370000FB6F894DEBF0FBECDBF8C01642E59017D
:1043800018861F821A8619861C861B86CE01079600
:104390000E94B015F12CE12C062C000C7708CB8480
:1043A000DC84C114D10409F472C08F809884B301F5
:1043B000C4010E945636009759F5EA14FB0409F02F
:1043C00066C0F80111821082138212821582148253
:1043D000BE01695F7F4FC8010E94A614CE010796F7
:1043E0000E94F114C8012C960FB6F894DEBF0FBEE0
:1043F000CDBFDF91CF911F910F91FF90EF90DF9094
:10440000CF90BF90AF909F908F907F906F900895C6
:104410009C01281939092F3F320779F221153105FE
:10442000B1F4960141E050E0BE01695F7F4FCE01DB
:1044300001960E94DC15BE016F5F7F4FCE0107968B
:104440000E94A614CE0101960E94F114A8CFEA148E
:10445000FB04A9F450E040E0BE01695F7F4FCE014C
:1044600001960E94DC15BE016F5F7F4FCE0107965B
:104470000E94A614CE0101960E94F114A2CFFFEF74
:10448000EF1AFF0AA9014F5F5F4F9601CDCF6DEF85
:1044900071E0C8010E94C715A1CFEF92FF920F9360
:1044A0001F93CF93DF93CDB7DEB72C970FB6F89459
:1044B000DEBF0FBECDBF8C0130E020E04DE3BC017C
:1044C000CE0101960E94A72121E030E04DE3B80122
:1044D000CE0107960E94A72104E611E0F12CE12C01
:1044E000D8016D917C91CE0101960E948914882398
:1044F00009F447C085E08E9D80018F9D100D112429
:104500000C591E4FF8018281813071F068F08230C1
:1045100059F1833049F18CE694E00E946106CE01A6
:1045200001960E94CC0F0BC068E070E0CE010796A8
:104530000E94F50ED8011396ED91FC916083CE0197
:1045400007960E94F114CE0101960E94F1142C9658
:104550000FB6F894DEBF0FBECDBFDF91CF911F9194
:104560000F91FF90EF90089568E070E0CE010796FC
:104570000E94F50ED8011396ED91FC917183608332
:10458000DECFBFEFEB1AFB0A0B5F1F4FE7E0EE1623
:10459000F10409F0A5CF82E993E0BFCF8F929F92FB
:1045A000AF92BF92CF92DF92EF92FF920F931F9341
:1045B000CF93DF93CDB7DEB72C970FB6F894DEBF5D
:1045C0000FBECDBF8C0130E020E040E2BC01CE0147
:1045D00007960E94A72162E070E0CE0107960E9434
:1045E000F50EE62E21E030E040E2B801CE01019662
:1045F0000E94A721BE016F5F7F4FCE0107960E94E8
:10460000A614CE0101960E94F11462E070E0CE0182
:1046100007960E94F50E862E22E030E040E2B801B7
:10462000CE0101960E94A721BE016F5F7F4FCE0190
:1046300007960E94A614CE0101960E94F11462E032
:1046400070E0CE0107960E94F50E962E23E030E032
:1046500040E2B801CE0101960E94A721BE016F5F22
:104660007F4FCE0107960E94A614CE0101960E94AC
:10467000F11462E070E0CE0107960E94F50EA62EBE
:1046800024E030E040E2B801CE0101960E94A7216B
:10469000BE016F5F7F4FCE0107960E94A614CE0128
:1046A00001960E94F11462E070E0CE0107960E942C
:1046B000F50EB62E25E030E040E2B801CE010196BD
:1046C0000E94A721BE016F5F7F4FCE0107960E9417
:1046D000A614CE0101960E94F11462E070E0CE01B2
:1046E00007960E94F50EF12C670183E0CC0CDD1CCF
:1046F0008A95E1F7C60184559C4FFC01EB53FF4FAF
:104700008082319690823196A082F601EC58FB4F60
:10471000B08287539F4FFC01608326E030E040E287
:10472000B801CE0101960E94A721BE016F5F7F4FA5
:10473000CE0107960E94A614CE0101960E94F114A4
:104740006F81788543E050E0C6018A589B4F0E94F4
:104750007136C7010E94EF0FCE0107960E94F11437
:104760002C960FB6F894DEBF0FBECDBFDF91CF9170
:104770001F910F91FF90EF90DF90CF90BF90AF907F
:104780009F908F900895AF92BF92CF92DF92EF9259
:10479000FF920F931F93CF93DF93CDB7DEB72C9784
:1047A0000FB6F894DEBF0FBECDBF8C0130E020E025
:1047B00040E2BC01CE0107960E94A72162E070E0B2
:1047C000CE0107960E94F50EF62E21E030E040E281
:1047D000B801CE0101960E94A721BE016F5F7F4FF5
:1047E000CE0107960E94A614CE0101960E94F114F4
:1047F00062E070E0CE0107960E94F50EA62E22E040
:1048000030E040E2B801CE0101960E94A721BE012E
:104810006F5F7F4FCE0107960E94A614CE010196CE
:104820000E94F11462E070E0CE0107960E94F50E3E
:10483000B62E23E030E040E2B801CE0101960E949E
:10484000A721BE016F5F7F4FCE0107960E94A6147D
:10485000CE0101960E94F11462E070E0CE0107964D
:104860000E94F50ECF2CD12C86E0E82EEC9CF001B6
:10487000ED9CF00D1124E455FC4FA582C601019674
:10488000E89ED001E99EB00D1124A455BC4FBC9206
:10489000678324E030E040E2B801CE0101960E9437
:1048A000A721BE016F5F7F4FCE0107960E94A6141D
:1048B000CE0101960E94F1146F817885FE9CC001A3
:1048C000112443E050E08C549C4F0E947136C60185
:1048D0000E944C10CE0107960E94F1142C960FB640
:1048E000F894DEBF0FBECDBFDF91CF911F910F9126
:1048F000FF90EF90DF90CF90BF90AF9008951F93FF
:10490000CF93DF9381E290E00E946B34EC011B8235
:104910001A828AE491E099838883809180028111D0
:1049200013C010927B0210927A028AEB90E090936F
:104930007D0280937C028FE290E090937F028093CF
:104940007E0281E0809380028091150581112CC048
:1049500011E010930805109309058EE095E09093FF
:104960000B0580930A0510920D0510920C058FEC33
:1049700091E0909305058093040510921005109224
:104980000F05109212051092110510931305109344
:10499000140581EC80930E050E94530564E075E0D8
:1049A0000E94980510931505E0910F05F0911005F0
:1049B000309769F58AE792E09093100580930F0590
:1049C000809111059091120520917E0230917F0215
:1049D000820F931F909312058093110589EE90E04A
:1049E0009F8F8E8FD0938A02C0938902FE013496E6
:1049F0008091B003823079F198F48130F1F08AE14E
:104A0000DF011D928A95E9F718A221C0FC0180817F
:104A100091810097D9F78AE792E091838083D0CF84
:104A2000833011F1843059F78AE1DF011D928A95B4
:104A3000E9F718A289E691E008C08AE1DF011D923A
:104A40008A95E9F718A289EE92E09F8F8E8FDF9109
:104A5000CF911F9108958AE1DF011D928A95E9F7B0
:104A600018A289E692E0F1CF8AE1DF011D928A95D2
:104A7000E9F718A289EE91E0E8CFECEAF3E089EEDD
:104A8000DF011D928A95E9F783E08093AD038AE008
:104A90008093910482E08093920481E08093930458
:104AA00020E094E095832683DF01A75ABF4F9C93B3
:104AB000119680E8820F8C932F5F3696283091F7FD
:104AC00083E08093E10331E03093E2038093350487
:104AD00041E8409336048093E70342E04093E803C3
:104AE00080933B0442E840933C048093ED03909311
:104AF000EE038093410444E8409342048093F3031F
:104B00002093F4038093470488E8809348049093AB
:104B1000F9032093FA0390934D0480934E049093ED
:104B2000FF0389E0809300049093530489E8809305
:104B300054043093590430935F04309365043093E8
:104B40006B0483EC80935A0482EC8093600485ECC0
:104B50008093660484EC80936C04E1E7F4E080E0E9
:104B600052E040E630EA5083982F917020E882307E
:104B700008F420E0920F91831282438334838F5F85
:104B80003896843081F708950E943D2585EA93E0A8
:104B90000C94BE0FCF92DF92EF92FF920F931F9370
:104BA000CF93DF93CDB7DEB7C95ED1090FB6F894C6
:104BB000DEBF0FBECDBFCE0101967C0100E810E044
:104BC0006C01C8010E949533F70181937F010F5F4B
:104BD0001F4F0936F1E01F07A1F7CE0102960E9490
:104BE000D302998198131AC089EEF601ACEAB3E0BA
:104BF00001900D928A95E1F781E090E0C751DF4F77
:104C00000FB6F894DEBF0FBECDBFDF91CF911F91DD
:104C10000F91FF90EF90DF90CF9008958EEF9FEF70
:104C2000EDCF0E94CA25019721F48EEA93E00C94FF
:104C3000BE0F08950F931F93CF93DF938DEA93E0F8
:104C40000E94D3028093AC030CEA13E0C0E8D0E0EA
:104C5000F80161918F01CE010E949D332196C936E2
:104C6000F1E0DF07A9F781E090E0DF91CF911F919C
:104C70000F9108950E941A26019721F486EB93E084
:104C80000C94BE0F08951F920F920FB60F9211242D
:104C90002F933F938F939F93AF93BF938091A404DF
:104CA0009091A504A091A604B091A7043091A3040B
:104CB00023E0230F2D3758F50196A11DB11D209338
:104CC000A3048093A4049093A504A093A604B09396
:104CD000A7048091A8049091A904A091AA04B0917E
:104CE000AB040196A11DB11D8093A8049093A90463
:104CF000A093AA04B093AB04BF91AF919F918F9101
:104D00003F912F910F900FBE0F901F90189526E89E
:104D1000230F0296A11DB11DD2CF1F920F920FB685
:104D20000F9211242F933F934F935F936F937F9331
:104D30008F939F93AF93BF93EF93FF93E0911B01EA
:104D4000F0911C010995FF91EF91BF91AF919F9157
:104D50008F917F916F915F914F913F912F910F9024
:104D60000FBE0F901F9018951F920F920FB60F92C3
:104D700011242F933F934F935F936F937F938F9360
:104D80009F93AF93BF93EF93FF93E0911901F0913D
:104D90001A010995FF91EF91BF91AF919F918F916A
:104DA0007F916F915F914F913F912F910F900FBE27
:104DB0000F901F9018951F920F920FB60F9211240B
:104DC0002F933F934F935F936F937F938F939F9313
:104DD000AF93BF93EF93FF93E0911701F091180108
:104DE0000995FF91EF91BF91AF919F918F917F9125
:104DF0006F915F914F913F912F910F900FBE0F9048
:104E00001F9018951F920F920FB60F9211242F9397
:104E10003F934F935F936F937F938F939F93AF9342
:104E2000BF93EF93FF93E0911501F091160109955F
:104E3000FF91EF91BF91AF919F918F917F916F9172
:104E40005F914F913F912F910F900FBE0F901F9048
:104E500018951F920F920FB60F9211242F933F9324
:104E60004F935F936F937F938F939F93AF93BF9372
:104E7000EF93FF93E0911301F09114010995FF91D5
:104E8000EF91BF91AF919F918F917F916F915F91C2
:104E90004F913F912F910F900FBE0F901F9018953B
:104EA0001F920F920FB60F9211248F939F938091B0
:104EB000E1009091E100937F9093E10083FF0FC0A8
:104EC0001092E90091E09093EB001092EC0092E3D5
:104ED0009093ED001092AD0498E09093F00082FF63
:104EE00022C093E09093E9009091F200992319F089
:104EF0009AE39093E80090912D03992341F09091CB
:104F00002D03915090932D03911101C05D9A9091C2
:104F1000AC04992341F09091AC0491509093AC046F
:104F2000911101C0289A84FF18C08091E2008E7E02
:104F300081608093E2008091E1008F7E8093E100A8
:104F400080912E038E7E806180932E039F918F919E
:104F50000F900FBE0F901F90189580FFF7CF809194
:104F6000E2008E7E80618093E2008091E1008E7E7F
:104F70008093E10080912E038E7E8160E5CF1F92A9
:104F80000F920FB60F921124CF92DF92EF92FF9201
:104F90000F931F932F933F934F935F936F937F9341
:104FA0008F939F93AF93BF93EF93FF93CF93DF9331
:104FB000CDB7DEB76C97DEBFCDBF1092E900809110
:104FC000E80083FF25C068E0CE0145960E944605B3
:104FD00082EF8093E8008D8987FF39C09091E800C7
:104FE00090FFFCCF982F907609F034C19E894F89AD
:104FF000588D2F89F88C911131C0803861F58091DE
:105000002F038093F1001092F1008EEF8093E8005F
:105010006C960FB6F894DEBF0FBECDBFDF91CF9177
:10502000FF91EF91BF91AF919F918F917F916F9180
:105030005F914F913F912F911F910F91FF90EF90B2
:10504000DF90CF900F900FBE0F901F9018959EEF9E
:105050009093E800C7CF1092F100D5CF913059F46A
:105060008111D3CF4130510581F680912F038D7F7F
:1050700080932F03CACF933049F48111C6CF4130BA
:10508000510519F680912F038260F2CF953041F4DB
:105090008091E80080FFFCCF20682093E300B5CF2B
:1050A000963009F0A9C00B8D1C8D22E01092E9000A
:1050B00010922B0310922A03F2122EC01092290391
:1050C000109228030E9467051F8299E09983FA8253
:1050D00091E09E8390EA98879AEF998720912A031E
:1050E00030912B03275F3F4F3C832B838D8310929E
:1050F000E90010922B0310922A03109329030093C6
:10510000280349E050E0BE016F5F7F4F80E00E94BE
:1051100079040E94670579CF10932903009328032F
:105120000E945305DC0112960D911C910115110589
:1051300009F451C1D801ED91FC910480F581E02D75
:10514000BE016B5E7F4FC8010995009709F03EC113
:10515000F80100851185EACFF3E0FF120EC08F89B8
:10516000882309F440C0823061F440E860E187E3BD
:1051700094E00E944604811148CF81E28093EB00C5
:1051800047CF813029F440E86BE08BE294E0F1CF27
:10519000833099F70E945305DC011296ED90FC9044
:1051A0008E010F5F1F4F6801E114F10479F0D70100
:1051B000ED91FC910680F781E02DB801C7010995BA
:1051C000080F111DF701E084F184EECFD8011C9285
:1051D000F60101900020E9F73197BF016C197D09B4
:1051E00040E0C601C6CF65E174E0FB01449150E0A8
:1051F00080E80E94790409CF973009F4BECF983037
:1052000021F481E08093F10000CF993009F0FDCEC8
:10521000837009F0B2CFE1E0F1E081E031E096E3A4
:105220002191222371F08093E9003093EB00DF019C
:1052300011972C912093EC009093ED008F5F8730B5
:1052400079F78EE78093EA001092EA008F898093C5
:10525000AD04DBCE8B8D9C8D1092E90010922B0358
:1052600010922A039093290380932803898D81113A
:1052700092C08E899D89913A49F4813209F07DCF9F
:1052800047E050E06BE071E080E0B3CF913209F08D
:1052900074CF833269F48F89988DB0E0A0E0809359
:1052A000070190930801A0930901B0930A01ADCEC4
:1052B000803269F48091E80082FFFCCF67E08BE0E8
:1052C00091E00E9446058BEF8093E8009ECE8232EB
:1052D00009F09BCE8F8980931201EEEFFFE7859155
:1052E00094918B3F9C4D51F1E0E0F8E080910B01EF
:1052F00090910C01A0910D01B0910E01803B944062
:10530000A105B105F1F48091120180FD1AC0EE3FB4
:105310008AE0F80789F587E797E791838083809192
:10532000600080932C0388E19BE00FB6F894A89569
:10533000809360000FBE9093600067CEEEEFFAE0BE
:10534000D5CF808191818737974709F05ECEA895A8
:105350008091600088618093600080912C0380932D
:105360006000EE3F2AE0F20789F08091FE0A9091FA
:10537000FF0A9183808349CE808191818737980786
:1053800051F29093FF0A8093FE0AC5CF1092FF0A54
:105390001092FE0A3ACE0E945305DC0112960D913E
:1053A0001C910115110509F4E8CED801ED91FC918D
:1053B0000190F081E02DBE016B5E7F4FC801099521
:1053C000811123CEF80100851185EBCF181619063F
:1053D0000CF41BCED2CEF1E0FF12BECE69E174E038
:1053E00004CF1F920F920FB60F9211242F933F9369
:1053F0004F935F936F937F938F939F93AF93BF93DD
:10540000EF93FF938091B900887F803609F44AC0FA
:10541000F0F5883209F4A7C018F5803109F49BC073
:10542000B8F4882309F4F9C0883009F494C0FF91D6
:10543000EF91BF91AF919F918F917F916F915F910C
:105440004F913F912F910F900FBE0F901F90189585
:10545000883109F488C0803251F78093D80414C091
:10546000803409F49DC040F48033B9F38833F9F6F1
:105470008093D80485ECB0C0803509F485C08835A8
:1054800009F496C0883499F60E946F21D0CF8839EC
:1054900009F48CC038F5883729F050F4883611F0BB
:1054A000803729F683E08093DA041092EE0257C029
:1054B000883809F47BC0803919F0803809F0B7CFFB
:1054C0008091EE02803208F071C0E091EE0281E03E
:1054D0008E0F8093EE028091BB00F0E0E253FD4F0F
:1054E00080833DC0803B39F0E0F4803A09F479C014
:1054F000883A09F09CCF84E08093DA041092CD02C0
:105500001092CC02E091B004F091B1040995809121
:10551000CC0281110FC081E08093CC021092AC02CA
:1055200009C0803C09F4A6CF883C09F4A3CF883B8E
:1055300009F07DCFE091CD0281E08E0F8093CD0206
:10554000F0E0E455FD4F80818093BB009091CD0247
:105550008091CC0229C08091B5048093BB0085EC7A
:105560008093BC0064CF9091D7048091D6049817A3
:1055700058F5E091D70481E08E0F8093D704F0E0D6
:10558000EA54FB4F8081E9CFE091D70481E08E0F90
:105590008093D7048091BB00F0E0EA54FB4F8083F6
:1055A0009091D7048091D6049817C8F285E8D8CF97
:1055B000E091D70481E08E0F8093D7048091BB00E7
:1055C000F0E0EA54FB4F80838091D90481115CCFD5
:1055D00081E08093B40484EA8093BC001092DA04E2
:1055E00026CF85EC8093BC001092DA048091EE0205
:1055F000803230F4E091EE02F0E0E253FD4F108291
:105600006091EE0270E0E091AE04F091AF048EEC98
:1056100092E009951092EE020ACF1092D80434CF8E
:10562000EDE1F5E01382128288EE93E0A0E0B0E0B5
:1056300084839583A683B7832BED31E03183208368
:105640002FEF3FEF35872487EDE6F5E013821282D6
:1056500084839583A683B7838DEE91E091838083C5
:10566000E3E8F5E0118210821382128280E18483E4
:10567000E9E7F5E011821082138212828483089593
:10568000CF93DF93CDB7DEB7CA58D1090FB6F894E0
:10569000DEBF0FBECDBF789484B5826084BD84B573
:1056A000816084BD85B5826085BD85B5816085BD1D
:1056B00080916E00816080936E00109281008091D5
:1056C000810082608093810080918100816080935D
:1056D00081008091800081608093800080919100A2
:1056E000826080939100809191008160809391000D
:1056F000809190008160809390008091C1008460CF
:105700008093C1008091C10082608093C10080912C
:10571000C10081608093C1008091C300816080934B
:10572000C3008091C00082608093C0008091C2005D
:1057300081608093C20080917A00846080937A00B7
:1057400080917A00826080937A0080917A008160F3
:1057500080937A0080917A00806880937A0010921A
:10576000AD0410922F0310922E038091D700816018
:105770008093D70080EA8093D80089B5806189BD85
:1057800089B5826089BD09B400FEFDCF0E94FC038B
:105790008091D8008F7C80618093D8008091E00058
:1057A000807F8093E0008091E1008E7E8093E10015
:1057B0008DE08093E200559A209A62E087E00E9493
:1057C000900362E082E00E94900362E083E00E9426
:1057D000900380917A008C7F80937A0080917A0088
:1057E000846080937A0062E088E00E94900362E027
:1057F00080E10E94900362E08EE00E94900362E0EC
:105800008FE00E94900360E082E10E94900360E0DC
:1058100083E10E94900360E084E10E94900360E0D5
:1058200085E10E94900362E085E00E94900362E0BF
:1058300086E00E94900362E089E00E94900362E0AB
:105840008AE00E9490031B992CC213B11695117027
:1058500081E018270E94CA25019711F4112321F035
:105860000E943D250E941A261B9903C01999109287
:105870001F018FEF9FEF90932A058093290588EEF3
:1058800093E0A0E0B0E08093210590932205A093DF
:105890002305B093240560E283E895E00E9450144C
:1058A000811101C288E494E00E94BE0F82E08093DF
:1058B000B80010E0812F877F873009F0FDC141E0FB
:1058C000612F83E895E00E941013612F83E895E033
:1058D0000E94C91241E0612F89E795E00E941013F0
:1058E000612F89E795E00E94C9121F5F103111F7FF
:1058F0008091AD03823009F4EEC1833009F4E9C12F
:10590000813011F40E947F2484E194E090931C0183
:1059100080931B0180916A00806380936A00EE9AF5
:105920000E94D7032B013C0120919F043091A004D9
:105930004091A1045091A204C957DF4F28833983B5
:105940004A835B83C758D04040929F045092A00482
:105950006092A1047092A20480919B0490919C0497
:10596000A0919D04B0919E048F779927AA27BB2709
:10597000892B8A2B8B2B19F5809197049091980491
:10598000A0919904B0919A04B301A201481B590B4C
:105990006A0B7B0BDB01CA0117E0B695A7959795BB
:1059A00087951A95D1F79093960480939504409229
:1059B0009704509298046092990470929A040E94FD
:1059C000D70383E895E00E949C138095909590936F
:1059D00033038093320389E795E00E949C136C01A6
:1059E000C094D094D0923503C0923403B3E9AB2E67
:1059F000B1E0BB2E10E000E0F12CE12CD5012D919F
:105A00003D915D013327F901EF5CFA4F8491F90173
:105A1000EE5EFA4F8490F901ED50FB4F949099207F
:105A200009F45CC181110E941603E92DF0E0EE0F2C
:105A3000FF1FEE5AFB4FA591B491EC918E2231E0FD
:105A400020E009F430E0832F922FB1E08B2780FF14
:105A50000AC081E090E00E2C02C0880F991F0A94C2
:105A6000E2F7082B192BEFEFEE1AFE0AF4E0EF161F
:105A7000F10409F0C3CF1093310300933003409138
:105A800032035091330323E633E0CB57DF4F3983A2
:105A90002883C558D040D90190E080E09C01285F60
:105AA0003F4FCD57DF4F39832883C358D0409A01E9
:105AB000082E02C0369527950A94E2F721702D939F
:105AC000CD57DF4F28813981C358D040CD57DF4FA4
:105AD000E881F981C358D040EE59FC4FBA0102C0A9
