:100000000C94F3020C948B260C9464260C943D26DD
:100010000C9416260C941B030C941B030C94EF25D4
:100020000C941B030C941B030C94B2260C942127F4
:100030000C941B030C941B030C941B030C941B03C8
:100040000C941B030C941B030C941B030C941B03B8
:100050000C941B030C941B030C941B030C94A525FC
:100060000C941B030C941B030C941B030C941B0398
:100070000C941B030C941B030C941B030C941B0388
:100080000C941B030C941B030C941B030C941B0378
:100090000C9453290C941B030C941B030C941B030A
:1000A0000C941B030C941B030C941B034D4A6F7997
:1000B000737469636B20656D756C6174696F6E2014
:1000C000656E61626C65640005010906A101850128
:1000D000050719E029E7150025017501950881023A
:1000E0009501750881039518750815002573050796
:1000F000190029738100C000000000000000002AE0
:100100002B2800000000000000000000000000009C
:10011000000000000000002C9EB4A0A1A2A434A600
:10012000A7A5AE362D3738271E1F202122232425D0
:1001300026B333B62EB7B89F8485868788898A8B85
:100140008C8D8E8F909192939495969798999A9B77
:100150009C9D2F3130A3AD350405060708090A0B15
:100160000C0D0E0F101112131415161718191A1B57
:100170001C1DAFB1B0B50000000000000000002A57
:100180002B2800000000000000000000000000001C
:10019000000000000000002C9E9FE0A1A2A32DA55E
:1001A000A6B030363837A4271E1F2021222324254D
:1001B00026B7B632A7B2ADDF8485868788898A8B59
:1001C0008C8D8E8F909192939495969798999A9BF7
:1001D0009C9DEFF5F000B8000405060708090A0B1E
:1001E0000C0D0E0F101112131415161718191A1BD7
:1001F0001C1DF4DEF1000000000000000000002AD9
:100200002B2800000000000000000000000000009B
:10021000000000000000002C9E9FF4A1A2A32DA5C9
:10022000A6B030363837A4271E1F202122232425CC
:1002300026B7B632A7B2ADF38485868788898A8BC4
:100240008C8D8E8F909192939495969798999A9B76
:100250009C9DEF35F0AEB8000405060708090A0BAF
:100260000C0D0E0F101112131415161718191A1B56
:100270001C1D00B500000000000000000000002A66
:100280002B2800000000000000000000000000001B
:10029000000000000000002C9E9F31A1A2A3B1A588
:1002A000A6B030363837A4271E1F2021222324254C
:1002B00026B7B632A7B2ADD48485868788898A8B63
:1002C0008C8D8E8F909192939495969798999A9BF6
:1002D0009D9CE5EDE600B8000405060708090A0B39
:1002E0000C0D0E0F101112131415161718191A1BD6
:1002F0001D1CE4F2E7F00000000000000000002AEE
:100300002B2800000000000000000000000000009A
:10031000000000000000002C3820E030B41E212234
:100320002D31AE1023B6B7A79E9FA0A1A2A3A4A56E
:10033000A63736322EB290E79485868788898A8BD5
:100340008C8D8E8FB39192938495969798999D9B5F
:100350009C9AE2E5EDE625E41405060708090A0B78
:100360000C0D0E0F331112130415161718191D1B3F
:100370001C1AE1E3EEDF004D4B6579626F61726438
:1003800020656D756C6174696F6E20656E61626C5D
:100390006564006D6370313D00556E6B6E6F776EF6
:1003A0002074797065200020666F72207061726120
:1003B0006D2000454550524F4D2072657365742085
:1003C000616E6420777269746500454550524F4DE7
:1003D000206C6F616400454550524F4D207361762B
:1003E000650020706172616D7300206B6579776FB5
:1003F00072647320616E64200048656C70206C69C3
:100400007374656420004B6579776F72642000080F
:100410000B000202020000090400000102020000B9
:10042000052400100105240101010424020605240D
:100430000600010705810310004009040100020ABB
:10044000000000070502024000000705830240008B
:10045000000403090412010002EF020140412336A7
:100460008000010102030141726475696E6F204CC6
:100470004C430041726475696E6F204C656F6E610C
:1004800072646F004D456D756C6174696F6E206D9F
:100490006F64653D004572726F72206D637031202C
:1004A0006F72206D6370322E004D537461727469E7
:1004B0006E67207769746820636F6E666967207263
:1004C0006561642066726F6D20696E7465726E611D
:1004D0006C206570726F6D004D436F6E66696720AA
:1004E000696E7465726E616C206570726F6D2072DA
:1004F0006573657420646F6E650000000000230062
:10050000260029002C002F00070605040100080A18
:100510000B0C0D0953796E746178206572726F72DD
:1005200000554E4B4E4F574E20434D442000563001
:100530002E302E302E30204A414D4D414D49414FF5
:1005400050454E20424F415244204F4E204C454F83
:100550004E4152444F003F004465627567204F464C
:1005600046004465627567204F4E0000000000247D
:100570000027002A002D0030000000000025002880
:10058000002B002E003100040404040403040502BF
:10059000020202040302020202060606060606041E
:1005A00004020202040404080201104080401020EA
:1005B0004080408008020401804020100201108029
:1005C00010204040200000000200090F000003043A
:1005D00001000C000000000000000000000000000E
:1005E00000000000722A11241FBECFEFDAE0DEBF48
:1005F000CDBF12E0A0E0B1E0E2E6FAE602C005906D
:100600000D92AA3BB107D9F725E0AAEBB2E001C0F1
:100610001D92A63AB207E1F712E0C3EFD2E004C0A0
:100620002197FE010E942333C23FD107C9F70E94E0
:10063000A22A0C942F350C940000FC01AC0144510B
:100640005F4F80E091E32191822728E030E087FF2F
:1006500009C0880F892721503109C9F7E417F50728
:1006600091F70895880FF7CF08950895FC018091C0
:10067000C204882311F13FB7F89482E08093E90027
:100680002091F200822F90E01816190614F481E0F0
:1006900090E0882339F0289844E64093C1044091C3
:1006A000F1004083222339F02091F200211103C090
:1006B0002BE62093E8003FBF08958FEF9FEF08954A
:1006C00081508F3008F047C0E82FF0E0E659FC4F2A
:1006D0000C94233387038B0379037F038303AB03DA
:1006E000AB03AB038E03940398039C03A203AB03F9
:1006F000A603809180008F77809380000895809179
:1007000080008F7DF9CF80918000877FF5CF84B501
:100710008F7784BD089584B58F7DFBCF8091900045
:100720008F77809390000895809190008F7DF9CF0E
:1007300080919000877FF5CF8091C0008F77809364
:10074000C00008958091C0008F7DF9CF8091C200D4
:10075000877F8093C20008951F93CF93DF93282F44
:1007600030E0F901EB53FA4F8491F901EA55FA4F61
:10077000D491F901E957FA4FC491CC23A9F0162F6F
:1007800081110E946003EC2FF0E0EE0FFF1FE7588D
:10079000FA4FA591B4918FB7F894EC91111108C05C
:1007A000D095DE23DC938FBFDF91CF911F91089509
:1007B000DE2BF8CFCF93DF9390E0FC01EA55FA4FA0
:1007C000249189579A4FFC0184918823C9F090E0C5
:1007D000880F991FFC01E559FA4FA591B491FC01CE
:1007E000E758FA4FC591D49161110DC09FB7F894A5
:1007F0008C91209582238C938881282328839FBF06
:10080000DF91CF910895623051F49FB7F8943C91F5
:10081000822F809583238C93E8812E2BEFCF8FB787
:10082000F894EC912E2B2C938FBFEACF8230910558
:1008300038F0880F991F880F991F05970197F1F7D6
:1008400008953FB7F8948091BD049091BE04A091A3
:10085000BF04B091C00426B5A89B05C02F3F19F076
:100860000196A11DB11D3FBFBA2FA92F982F882730
:10087000BC01CD01620F711D811D911D42E0660F0B
:10088000771F881F991F4A95D1F70895CF92DF925D
:10089000EF92FF920E9421046B017C010E942104CF
:1008A0006C197D098E099F09683E73408105910589
:1008B000A8F3FF90EF90DF90CF900895E69A089507
:1008C0000895089540915B0350915C032091590372
:1008D00030915A0342175307B4F49091E800957091
:1008E000E1F39091E80092FD19C08093F1008091AE
:1008F0005B0390915C0301968F739927892B19F400
:100900008EEF8093E80080915B0390915C030196E9
:1009100090935C0380935B0381E0089580E00895E9
:10092000EF92FF920F931F93CF93DF93F82E192F1F
:10093000E62E042F81E0860F880F0E94620483E078
:100940000E946204CF2DD12FEC0EFD2EF11CCE158E
:10095000DF05B9F007FF13C0FE0184910E94620415
:10096000182F80E00E946204812321968111EFCF2D
:10097000DF91CF911F910F91FF90EF9008958881A3
:10098000EDCF81E0F5CFDF92EF92FF920F931F93AF
:10099000CF93DF93D82E8A01EB017B01E40EF51E85
:1009A000CE15DF0559F0D7FE12C0FE0184910E94DA
:1009B000620421968111F4CF0FEF1FEFC801DF9180
:1009C000CF911F910F91FF90EF90DF900895888154
:1009D000EECF2FB7F89487708093E9009091E800EC
:1009E000892F807295FF04C09091F20080E4891BEA
:1009F0002FBF08957F928F929F92AF92BF92CF9216
:100A0000DF92EF92FF920F931F93CF93DF93C82E45
:100A10008B017A018091C204811110C08FEF9FEF8A
:100A2000DF91CF911F910F91FF90EF90DF90CF90CA
:100A3000BF90AF909F908F907F90089580915F03BB
:100A400080FF05C08091E00082608093E000CE2DA1
:100A5000DF2DD12C8AEFB82E8C2D8770982E8C2DFF
:100A60008072882E8C2D8074782E9AE3A92E209780
:100A700019F4DD2009F44EC08C2D0E94E904811187
:100A800006C0BA94BB2051F20E944604F0CF8C17E6
:100A90001D0611F00CF08C2F9FB7F8949092E9008E
:100AA0002091E80025FD02C09FBFE1CF282F30E054
:100AB000C21BD30B882029F08150A0F01092F100C6
:100AC000FBCFF801C7FC0AC0815050F04191409320
:100AD000F100FACF44914093F10031968150D0F764
:100AE000020F131FDD2021F0A092E800D12CDCCFF3
:100AF0008091E80085FD07C0A092E800DD24D39432
:100B0000209791F2F3CF209779F6772069F2A0929F
:100B1000E800CACF5D9884E680935E03C70180CF6A
:100B2000615030F02091F100FC0120830196F8CF54
:100B3000289884E68093C10408958091510381111F
:100B40000DC082E080934D0384E080934E031092A9
:100B5000500310924F0381E0809351038DE493E0A2
:100B600008950F931F93CF93DF931F92CDB7DEB7F6
:100B700082E0898342E450E06FE074E080E80E9404
:100B8000C3040E949D05DC0112960D911C91011574
:100B9000110589F0D801ED91FC910280F381E02DDF
:100BA000BE016F5F7F4FC801099597FD04C0F80132
:100BB00000851185ECCF89810F90DF91CF911F9136
:100BC0000F910895CF93DF93FC01DB01818114968F
:100BD0003C911497682F630F7727771F6830710552
:100BE0009CF5C281D381209739F5B383A28390818C
:100BF00012969C93129713968C93139715968C913B
:100C00001597890F808390E080E0831708F5218194
:100C1000C22FD0E0BE0160507F4F16964D915C917F
:100C20001797480F591FEA014881EB0148832F5F4E
:100C300021830196EACFEA0148855985411551057E
:100C4000D1F7B987A887D3CF80E0DF91CF910895FE
:100C500081E0FBCFEF92FF921F93CF93DF931F9220
:100C6000CDB7DEB77C0180912A0581112CC011E03F
:100C700010931D0510931E0583E295E090932005C7
:100C800080931F05109222051092210585EB91E0BB
:100C900090931A058093190510922505109224054A
:100CA0001092270510922605109328051093290508
:100CB00081EC809323050E949D0569E175E00E9407
:100CC000E20510932A0582E0898341E050E0BE01ED
:100CD0006F5F7F4F80911C050E94FA0497FD08C04A
:100CE00080911C054AE150E0B70180640E94FA043B
:100CF0000F90DF91CF911F91FF90EF900895CF93C8
:100D0000DF93EC0180911201882331F083E00E948F
:100D1000FA041816190634F081E090E09B838A8368
:100D200080E090E0DF91CF910895FC0144815581EE
:100D30006081718182E395E00C947F06CF93DF930D
:100D40001F92CDB7DEB76983DC01ED91FC91028083
:100D5000F381E02D41E050E0BE016F5F7F4F0995C8
:100D60000F90DF91CF9108950F931F93CF93DF934F
:100D70008C01D0E0C0E0F801EC0FFD1F6491662308
:100D800041F082E395E00E949E06892B11F02196A6
:100D9000F2CFCE01DF91CF911F910F91089583E0A3
:100DA0008093E9008091F200882319F08AE3809310
:100DB000E800089583E00E94E90490E00895CF934D
:100DC000DF931F92CDB7DEB7FC018485958597FD33
:100DD00008C02FEF3FEF358724870F90DF91CF9129
:100DE0000895CE0101960E943603019719F4898176
:100DF00090E0F3CF8FEF9FEFF0CF0F931F93CF9340
:100E0000DF931F92CDB7DEB78C01FC0184859585F9
:100E100097FF0BC0CE0101960E943603019771F433
:100E2000898190E0F80195878487F801848595850C
:100E30000F90DF91CF911F910F9108958FEF9FEF4A
:100E4000F1CFFC018485958597FD0BC09FB7F89481
:100E500082E08093E9008091F2009FBF90E00196CC
:100E600008959FB7F89482E08093E9008091F200A2
:100E70009FBF90E008954F925F926F927F928F9202
:100E80009F92AF92BF92CF92DF92EF92FF920F9319
:100E90001F93CF93DF93CDB7DEB72C970FB6F8949F
:100EA000DEBF0FBECDBFEA14FB040C051D050CF020
:100EB0007FC027013801A982BA82CB82DC8290E010
:100EC00080E0662309F45DC02D833E834F835887FD
:100ED0002D813E814F8158852415350546055705DE
:100EE00024F44D825E826F82788689819A81AB81FB
:100EF000BC8189879A87AB87BC872D813E814F81D2
:100F00005885281739074A075B0724F429873A8749
:100F10004B875C87AE14BF04C006D106B4F4498188
:100F20005A816B817C8189859A85AB85BC85481BFC
:100F3000590B6A0B7B0BDB01CA01840D951DA61DA5
:100F4000B71D89879A87AB87BC8729853A854B85EA
:100F50005C852419350946095709AFEFBFEF0E9498
:100F6000883229813A814B815C81241935094609EF
:100F700057090E946932D4012C9311963C9382E068
:100F800090E02C960FB6F894DEBF0FBECDBFDF9178
:100F9000CF911F910F91FF90EF90DF90CF90BF9076
:100FA000AF909F908F907F906F905F904F9008953B
:100FB00025013601E982FA820B831C8380CFDC0194
:100FC000FB0191818081813A31F49D7F81E09130F4
:100FD00009F080E008958132E1F79B3029F48281A5
:100FE0001F968C9381E008959A3099F782815096EC
:100FF0008C93F8CFFC014281FB012481358142179B
:10100000130611F40C94DF0780E00895DC01FB0166
:1010100088E4808389E4818384E482831D969C91A3
:101020001D979F709F5B93831D968D919C9124E0EB
:10103000969587952A95E1F78F708F5B848385E07D
:101040000895EF92FF920F931F93CF93DF93FB01CD
:101050002081213889F52381223271F5DC01129635
:101060004C91248135814217130631F58C01FC0126
:10107000C385D485F12CE12C209791F04C815D81C2
:101080006A817B818E81811180E80E94C3048F3F39
:10109000980759F0E80EF91E0990D881C02DECCFC1
:1010A00081E0D8011F968C93C701DF91CF911F91EA
:1010B0000F91FF90EF90089590E080E0F6CFCF93EE
:1010C000DF93CDB7DEB769970FB6F894DEBF0FBEDA
:1010D000CDBFFC01DB018C918F5F8C939E012D5F56
:1010E0003F4F8DE0D9011D928A95E9F729E02983C8
:1010F00084E08A8391E09D8383E08E832A8721E2C6
:101100002B879C879D879F8722E2288B27E02B8B4C
:1011100025E02C8B8E8B20E430E0388F2F8B998F3D
:1011200082818B8395858685998B8A8B8381806864
:101130008D8B49E150E0BE016F5F7F4F80E00E94E0
:10114000C30469960FB6F894DEBF0FBECDBFDF9122
:10115000CF910895CF938091450381112CC0C1E0B8
:10116000C0933803C09339038EE393E090933B031D
:1011700080933A0310923D0310923C0389E791E07B
:1011800090933503809334031092400310923F03F1
:101190001092420310924103C0934303C09344034F
:1011A00081EC80933E030E949D0564E373E00E94FE
:1011B000E205C093450384E393E0CF910895FC01D9
:1011C0004281FB01248135814217130611F40C94EE
:1011D000DF0780E00895EF92FF920F931F93CF9364
:1011E000DF93FB012081213871F52381223259F5EB
:1011F000DC0112964C91248135814217130619F5B2
:10120000EC010B851C85F12CE12C0115110589F0F1
:10121000F801448155816281738180E80E94C30492
:101220008F3F980749F0E80EF91ED8010D911C91E7
:10123000ECCF81E08F87C701DF91CF911F910F9194
:10124000FF90EF90089590E080E0F6CFCF93DF938A
:10125000CDB7DEB769970FB6F894DEBF0FBECDBF2E
:10126000FC01DB018C918F5F8C939E012D5F3F4FC2
:101270008DE0D9011D928A95E9F729E0298384E060
:101280008A8391E09D8383E08E832A8721E22B87E6
:101290009C879D879F8722E2288B27E02B8B25E068
:1012A0002C8B8E8B20E430E0388F2F8B998F8281AE
:1012B0008B8395858685998B8A8B838180688D8BBE
:1012C00049E150E0BE016F5F7F4F80E00E94C304A0
:1012D00069960FB6F894DEBF0FBECDBFDF91CF91F8
:1012E0000895CF92DF92EF92FF920F931F93CF93C7
:1012F000DF936C01EB017B01E40EF51E10E000E0D2
:10130000CE15DF0581F069916D30D1F3D601ED91F5
:10131000FC910190F081E02DC6010995892B19F00F
:101320000F5F1F4FEDCFC801DF91CF911F910F913C
:10133000FF90EF90DF90CF900895DC016838C8F0FF
:101340006858FD0188E1662321F09681961301C05B
:101350001682815031968111F6CF90968C9190979C
:10136000882321F0CD0104960E942A0681E090E0B6
:101370000895862F90E067FF13C0FC01E058F10943
:1013800081E090E001C0880FEA95EAF78095149615
:101390009C911497892314968C93149760E0D1CF75
:1013A0005E96ED91FC915F97E80FF91F64916623BB
:1013B000E1F0862F807C803C69F414968C91149720
:1013C0008F7B14968C9314976F73623309F0B9CFA7
:1013D00064E6B7CF67FFF9CF14968C9114978D7F91
:1013E00014968C9314976F77F0CF90E080E0089577
:1013F000CF93DF93DC01683808F16858FD01369619
:10140000CD014E96EF012991261761F08C179D07AB
:10141000D1F790E080E02191211156C08A0F9B1FE7
:10142000FC01668390968C919097882321F0CD01E2
:1014300004960E942A0681E090E027C0862F90E063
:1014400067FF12C0FC01E058F10921E030E001C063
:10145000220FEA95EAF714968C911497822B149632
:101460008C93149760E0CACF5E96ED91FC915F97E4
:10147000E80FF91F649161110BC081E090E01396B1
:101480009C938E93129790E080E0DF91CF91089526
:10149000862F807C803C69F414968C91149780642C
:1014A00014968C9314976F73623309F0A7CF64E698
:1014B000A5CF67FFF9CF14968C911497826014968C
:1014C0008C9314976F77F0CF01968831910509F0CE
:1014D000A2CFD3CFEF92FF920F931F93CF93DF93BF
:1014E000EC01162F08A181E088A3CE010E94F80923
:1014F0007C01612FCE010E949D0908A3C701992795
:10150000DF91CF911F910F91FF90EF90089520915F
:101510001103260F3327331F21323105ECF42091BC
:10152000EF04FC0190E080E0243069F082E008954F
:10153000A09111032191AC014F505D4FA40FB52F25
:10154000B11D2C930196861798F380911103680FB3
:101550006093110380E0089581E008951092EF04F4
:1015600081E08093EE041092C90461E082E00E9461
:10157000AC0361E083E00E94AC03E9EBF0E0808122
:101580008E7F808380818D7F808388E48093B80004
:1015900085E48093BC000895CF93DF9391E090930E
:1015A000F0028823B9F0C091B800D091BA008091C0
:1015B000BC008A7B8093BC0060E082E00E94AC03A8
:1015C00060E083E00E94AC030E94AE0AD093BA00B0
:1015D000C093B800DF91CF9108958F929F92AF9200
:1015E000BF92CF92DF92EF92FF920F931F93CF9310
:1015F000DF93D0911805D13208F0D7C0182FC091D1
:1016000017050E9421046B017C018091EF04811178
:101610006BC082E08093EF041093EE048FEF809311
:10162000ED041092EC04D093EB04A7EFB4E0EBECE4
:10163000F4E080E0D81391C01092CA048091CA04EB
:10164000CC0FC82BC093CA048091C904813009F023
:1016500088C01092C9040E9421046B017C01809112
:10166000CA048093BB008091F1049091F204A09190
:10167000F304B091F404892B8A2B8B2BA1F00E94E8
:1016800021040091F1041091F2042091F3043091AF
:10169000F4046C197D098E099F090617170728079E
:1016A000390708F442C08091BC0083FDD8CF85EC97
:1016B0008093BC000E9421046B017C018091EF04A7
:1016C000823009F450C08091ED048F3F09F46FC05F
:1016D0008091ED04803209F46CC08091ED04803378
:1016E00009F469C084E026C08091F1049091F2046D
:1016F000A091F304B091F404892B8A2B8B2B09F46D
:1017000084CF0E9421048090F1049090F204A09074
:10171000F304B090F4046C197D098E099F098616B4
:101720009706A806B90608F070CF8091F0040E94D1
:10173000CC0A85E01092F604109218051092F50478
:10174000DF91CF911F910F91FF90EF90DF90CF909D
:10175000BF90AF909F908F9008959D9191938F5FD0
:1017600069CF85EEA5CF8091F1049091F204A0910C
:10177000F304B091F404892B8A2B8B2B09F49ECFB0
:101780000E9421040091F1041091F2042091F304CD
:101790003091F4046C197D098E099F09061717070B
:1017A0002807390708F08ACFC0CF81E0C3CF80E097
:1017B000C1CF82E0BFCF83E0BDCF0895E091C804E0
:1017C0008091C704E81730F4F0E0E053FD4F8081CA
:1017D00090E008958FEF9FEF08959091C804809155
:1017E000C7042FEF3FEF981748F4E92FF0E0E053DC
:1017F000FD4F208130E09F5F9093C804C901089598
:101800008091C7049091C804891B990B0895CF92C9
:10181000DF92EF92FF920F931F93CF93DF937C01A0
:10182000CB018A012091F504222389F0EB016B01A1
:10183000C40ED51ECC15DD0569F06991D701ED9177
:10184000FC910190F081E02DC7010995F3CF642F41
:101850000E94870AC801DF91CF911F910F91FF90DD
:10186000EF90DF90CF900895CF93DF931F92CDB785
:10187000DEB769832091F5042223F9F02091180541
:10188000203258F021E030E0FC013383228390E0E5
:1018900080E00F90DF91CF9108958091F604E82FBA
:1018A000F0E0E950FB4F998190838F5F8093F604BD
:1018B0008093180581E090E0ECCF61E0CE010196C5
:1018C0000E94870AF7CF90E080E00895FC018385AD
:1018D0008F3F19F061E00C94AC030895FC01808106
:1018E0009181892B39F0A281B3819C9111968C91C1
:1018F0009CBD8DBD83858F3F19F060E00C94AC03D7
:101900000895AF92BF92CF92DF92EF92FF920F9322
:101910001F93CF93DF93EC0188819981892B89F004
:101920006EBD0DB407FEFDCFBEB48B2DDF91CF9100
:101930001F910F91FF90EF90DF90CF90BF90AF90ED
:1019400008958885998511E0892B09F010E8AA246B
:10195000A394862F812309F0A12C062F2C813D8191
:101960004E815F8160E271EA87E090E00E94CA32B6
:10197000F22EB02EE12CC22ED12CFF2019F0C60180
:101980000E9416048A85877F09F042C08D858F3FAB
:1019900089F0902F912381E009F480E08A1551F0BD
:1019A000EF85F8898F89992369F19081892B80834C
:1019B000AA24A394E989FA898081998D892B80834F
:1019C000FF2019F0C6010E9416048E858F3F39F062
:1019D000EB89FC898081988D892309F0E12AE989C6
:1019E000FA899081898D8095892380838E858F3FA8
:1019F00009F0BE2C88859985892BB9F5110F111135
:101A0000BCCF93CF9081809589238083A12CD2CFA6
:101A1000E989FA898081998D892B8083FF2019F0CB
:101A2000C6010E9416048D858F3F49F0EF85F88925
:101A30008F89902F9123A9F09081892B8083E98948
:101A4000FA899081898D8095892380838E858F3F47
:101A500069F2EB89FC898081988D892339F2E12A2A
:101A6000C5CF908180958923E9CF1695C8CF8F92F5
:101A70009F92AF92BF92CF92DF92EF92FF920F931D
:101A80001F93CF93DF937C014B016A01B22EA32EEB
:101A90000E946E0CE401C80CD91CCC15DD0569F45C
:101AA000CB2DDA2D0C0F1D1FC017D10759F06FEF8A
:101AB000C7010E94810C8993F7CF6991C7010E94E9
:101AC000810CEBCFC7010E94660C81E0DF91CF91C2
:101AD0001F910F91FF90EF90DF90CF90BF90AF904C
:101AE0009F908F9008958F929F92AF92BF92CF92C6
:101AF000DF92EF92FF920F931F93CF93DF937C01BE
:101B0000B62EA72E6A0149010E946E0CE401080D51
:101B1000191DC017D10761F4CB2DDA2DCC0EDD1EB7
:101B2000CC15DD0551F06991C7010E94810CF8CFF9
:101B30006991C7010E94810CECCFC7010E94660C1D
:101B400081E0DF91CF911F910F91FF90EF90DF9097
:101B5000CF90BF90AF909F908F9008951F93CF9399
:101B6000DF93EA01122FDC0111968D919C91DC012B
:101B7000ED91FC910280F381E02D0995C817D907FA
:101B800029F4812F0E94ED0A91E0811190E0892FC4
:101B9000DF91CF911F910895CF93DF93EC018B815B
:101BA0008823A1F0888191E09093F5048093170534
:101BB0001092F6041092180581E00E94ED0A91E05F
:101BC000811190E0892FDF91CF9108951092C80480
:101BD0001092C7041092F604109218050E94AE0AE3
:101BE00084E393E09093C6048093C50485E393E077
:101BF0009093C4048093C30481E08B83CE010E9440
:101C0000CC0D982F8111CECFDDCFAF92BF92CF9266
:101C1000DF92EF92FF920F931F93CF93DF9300D049
:101C2000CDB7DEB7DC01211103C018962C911897AF
:101C3000253008F043C01F964D935D936D937C93C0
:101C4000529790E080E0E22EF12C8E159F05B4F4BF
:101C50001A962C911A9721110AC0FD01E80FF91F5D
:101C60004387452F562F672F77270196EECFF70131
:101C7000E81BF90BEA0FFB1F4287F3CF6D018BE0E6
:101C8000C80ED11C16969C91169717968C91179793
:101C900099838A83AD90BC901197A114B10409F483
:101CA00041C019960C9110E098012E0D3F1DD501F1
:101CB00014968D919C918217930710F480E016C0C2
:101CC000F50181819281208131E03093F5042093E8
:101CD00017051092F604109218050115110599F4D4
:101CE00021E0A701B601C5010E94AE0D0F900F9033
:101CF000DF91CF911F910F91FF90EF90DF90CF90E8
:101D0000BF90AF900895DC01ED91FC910280F381CA
:101D1000E02DA801BE016F5F7F4F099508171907D5
:101D200069F6DECF1296ED91FC911397309731F260
:101D300014962D913C91159719960C9110E0233033
:101D4000310571F48E7F89839A830F5F1F4F9E0147
:101D50002F5F3F4FA701B601CF010E94730DC6CF81
:101D60002115310519F49F779983F1CF2230310580
:101D700011F49068F9CF2130310549F79F779064CD
:101D8000F3CFFC0170E08481893018F0660F771F73
:101D9000642B82819381892B41F0858190E0982F7B
:101DA0008827990F9064682B792BCB010895EF92C7
:101DB000FF920F931F93CF93DF93CDB7DEB7639757
:101DC0000FB6F894DEBF0FBECDBF7C018B0140E0A3
:101DD00069E00E94C10EF701428153812081318167
:101DE000188A198A1A8A1B8A5C834B833A8329834F
:101DF00023E030E03E832D8321E02A8798878F837C
:101E00001B8682E08987A80170E060E022E0CE01B5
:101E100001960E94050E63960FB6F894DEBF0FBEC2
:101E2000CDBFDF91CF911F910F91FF90EF9008955B
:101E3000EF92FF920F931F93DC01ED91FC919B01B8
:101E40002E0F3F1F60E070E0CB01519140ED450F38
:101E5000A42F4A3058F04FE9450FA9EA463028F040
:101E60004FEB450F4630D8F4A9ECA50FAB01BC01F0
:101E700084E0440F551F661F771F8A95D1F78A2F7C
:101E8000AA0F990BAA0BBB0B7C018D01E40EF51E6A
:101E9000061F171FC801B7012E173F07B1F61F9184
:101EA0000F91FF90EF9008956AE082E395E00C9423
:101EB0009E06CF93DF93EC016DE482E395E00E94F0
:101EC0009E06CE010E949506DF91CF910C94540F8F
:101ED000E2E3F5E08FEF9FEF9587848788EE93E04C
:101EE000A0E0B0E084839583A683B783089584E05F
:101EF0008093C20382E08093C3031092C5031092C3
:101F0000C40381E08093C603E1ECF3E0DF011696A1
:101F10008C931697169694E0A138B907C1F790E80C
:101F20009093C80392E89093CE0390E29093D403E9
:101F300091E89093DA039AE79093E00398E79093FF
:101F4000E60393E69093EC0396E79093F20391E611
:101F500090931C0493E79093220491E790932804B4
:101F600097E790932E0495E69093340492E690932D
:101F70003A049EE6909340049DE69093460493ECC9
:101F80009093700499E39093760495EC90937C047D
:101F900094E7909382049AE09093AB0492E090933C
:101FA000AC048093AD0420E094E096832783DF01A6
:101FB000A65ABF4F9C93119680E8820F8C932F5F97
:101FC0003696283091F783E08093F70331E0309321
:101FD000F80380934B0431E830934C048093FD0365
:101FE00032E03093FE038093510432E83093520480
:101FF00080930304909304048093570434E830934F
:1020000058048093090420930A0480935D0488E8AF
:1020100080935E0490930F042093100490936304C4
:10202000809364049093150489E080931604909340
:10203000690489E880936A04E7E8F4E0A3EAB4E07D
:1020400080E032E020E690E83083818312822C9396
:1020500011969C9311978F5F379612968430A1F753
:102060000895FC0101900020E9F73197AF01481B6A
:10207000590BBC0182E395E00C947F06CF93DF936C
:102080000E94B406EC0181EE91E00E9431108C0FA9
:102090009D1FDF91CF9108958F929F92AF92BF9233
:1020A0000F931F93CF93DF93CDB7DEB7A1970FB6F2
:1020B000F894DEBF0FBECDBF19A2423008F44AE04B
:1020C0008E010F5D1F4F842E912CB12CA12CA501E8
:1020D00094010E94CA32E62FB901CA01EA30F4F431
:1020E000E05DD801EE938D01232B242B252B79F76E
:1020F00090E080E0109719F0CD010E943110A19678
:102100000FB6F894DEBF0FBECDBFDF91CF911F9108
:102110000F91BF90AF909F908F900895E95CE1CFB1
:102120000C943110CF93DF932091AE04222361F001
:10213000EC0184EE91E00E949010CE010E94950681
:10214000DF91CF910C94540FDF91CF910895FF92BE
:102150000F931F93CF93DF938C01F62E86E090E0D0
:102160000E942933EC01F88282E895E09A83898302
:102170001B8280E290E09D838C83F801D183C08331
:102180001092C8041092C7041092F6041092180519
:102190000E94AE0A84E393E09093C6048093C50442
:1021A00085E393E09093C4048093C30481E08B8320
:1021B000CE01DF91CF911F910F91FF900C94CC0D28
:1021C0001F93CF93DF9387E793E00E943E1081E255
:1021D00090E00E942933EC011B821A8287E491E08F
:1021E000998388838091C802811113C01092C30221
:1021F0001092C20288EC90E09093C5028093C402D2
:102200008FE290E09093C7028093C60281E08093B2
:10221000C80280912A0581112CC011E010931D0580
:1022200010931E0583E295E09093200580931F058F
:10223000109222051092210585EB91E090931A05EA
:1022400080931905109225051092240510922705F8
:1022500010922605109328051093290581EC809390
:1022600023050E949D0569E175E00E94E205109337
:102270002A05E0912405F0912505309731F582EC8F
:1022800092E09093250580932405809126059091F6
:1022900027052091C6023091C702820F931F9093A9
:1022A00027058093260587EF90E09F8F8E8FD09330
:1022B000B403C093B3038091C603823049F170F434
:1022C0008130A1F018A217C0FC0180819181009794
:1022D000D9F782EC92E091838083D7CF8330E1F00D
:1022E000843081F718A287E791E003C018A287EF36
:1022F00092E09F8F8E8FFE013696CE014E96119200
:10230000E817F907E1F71C82DF91CF911F9108953B
:1023100018A287E792E0EDCF18A287EF91E0E9CF0E
:102320002F923F924F925F926F927F928F929F92E5
:10233000AF92BF92CF92DF92EF92FF920F931F93D3
:10234000CF93DF9300D000D01F92CDB7DEB77C01D2
:10235000DC0118960C914C01BBE08B0E911CFC012A
:102360009681878199838A8320803180211431046A
:1023700009F424C1418550E0D10114968D919C91BE
:1023800015978417950708F46CC18C9191E0909390
:10239000F504809317051092F6041092180520E0BA
:1023A000BE016F5F7F4FC1010E94AE0D882309F40B
:1023B00058C1E02FF0E0FC83EB83B12CA12C01E0AD
:1023C0008B819C81A816B90608F018C1D10114961A
:1023D0008D919C91CB80DC80CA18DB088C159D0503
:1023E00008F46C01F101F081FD830E9421042B01AE
:1023F0003C018091EF04811172C01C2D113208F054
:1024000010E20093EF0421E08B819C818C199D09DF
:10241000A816B90608F420E02093EE048FEF80930D
:10242000ED041092EC04810F8093EB040093CA0436
:102430009091CA048D81880F892B8093CA04809162
:10244000C904813009F091C01092C9040E9421048E
:102450002B013C018091CA048093BB008091F10460
:102460009091F204A091F304B091F404892B8A2B8B
:102470008B2BA1F00E9421042091F1043091F204F1
:102480004091F3045091F404641975098609970981
:10249000261737074807590708F442C08091BC0047
:1024A00083FDD8CF95EC9093BC000E9421042B01B2
:1024B0003C018091EF04813009F45BC08091EC0411
:1024C000811710F41091EC04EBECF4E0A0EDB2E015
:1024D00080E0811751F191919D938F5FFACF8091A8
:1024E000F1049091F204A091F304B091F404892BCB
:1024F0008A2B8B2B09F47DCF0E9421042091F104BB
:102500003091F2044091F3045091F4046419750978
:1025100086099709261737074807590708F069CF32
:102520008091F0040E94CC0A10E01092C80410932D
:10253000C7041C151D0409F094C034016A0C7B1CEF
:102540002301C201861997098C159D05A0F5F1019B
:1025500081819281DC01ED91FC910284F385E02D73
:102560000995F20181932F01ECCFA5EEA093BC0059
:102570009CCF8091F1049091F204A091F304B0916A
:10258000F404892B8A2B8B2B09F493CF0E9421040E
:102590002091F1043091F2044091F3045091F4043D
:1025A00064197509860997092617370748075907D7
:1025B00008F07FCFB5CFAC0CBD1C02CFD701028095
:1025C000F381E02D309709F44CC014962D913C9185
:1025D000159710E019964C9150E02330310561F5C4
:1025E000816089839A834F5F5F4F9401BE016F5F63
:1025F0007F4FCF010E94370D882399F1F701408565
:1026000050E030E020E060E070E0CB0124173507B7
:102610005CF5982F872F762F6627D7011A96EC91B5
:10262000E1111AC0FA01E21BF30BEE0DFF1DE2856A
:102630006E2B2F5F3F4FEACF2115310519F49068BB
:102640009983D3CF2230310511F49F77F9CF213010
:10265000310559F6906CF4CFF701E20FF31FE385D3
:10266000E7CF6FEF7FEFCB010F900F900F900F90A0
:102670000F90DF91CF911F910F91FF90EF90DF901E
:10268000CF90BF90AF909F908F907F906F905F9012
:102690004F903F902F9008958F929F92AF92BF924C
:1026A000CF92DF92EF92FF920F931F93CF93DF931E
:1026B000EC014A015B01888199810E9490112A8175
:1026C00001E010E002C0000F111F2A95E2F701504F
:1026D0001109012E000C220B330BAB81680179012B
:1026E0000A2E04C0CC0CDD1CEE1CFF1C0A94D2F791
:1026F000C094D094E094F094C622D722E822F92224
:10270000E881F981B901A801482159216A217B2179
:1027100004C0440F551F661F771FAA95D2F74C2996
:102720005D296E297F292085CF01DF91CF911F91EF
:102730000F91FF90EF90DF90CF90BF90AF909F9060
:102740008F900C94050EEF92FF921F93CF93DF931F
:10275000CDB7DEB767970FB6F894DEBF0FBECDBF1B
:102760007C01162F41E0683008F440E069E0C701C1
:102770000E94C10EF7014281538120813181188A64
:10278000198A1A8A1B8A5C834B833A83298323E044
:1027900030E03E832D8321E02A8798878F831B8634
:1027A0002987CE0101969D8B8C8B2E8B17701F8BEA
:1027B00040E050E0BA0143960E944C1367960FB672
:1027C000F894DEBF0FBECDBFDF91CF911F91FF9078
:1027D000EF9008956F927F928F929F92AF92BF92E7
:1027E000CF92DF92EF92FF920F931F93CF93DF93DD
:1027F000CDB7DEB7AE970FB6F894DEBF0FBECDBF34
:102800007C01062F642E77247394683008F4712CB1
:10281000472D60E0C7010E94C10EF70182809380BE
:10282000A080B180188A198A1A8A1B8A9C828B829E
:10283000BA82A98223E0C22ED12CDE82CD8211E0A1
:102840001A8798878F831B861987472D66E0C701F3
:102850000E94C10E1BA21CA21DA21EA29F8A8E8ACC
:10286000BD8AAC8AD98EC88E1D8F9B8F8A8F1E8E93
:102870001C8F0770CE01019698A78FA319A70AA7EE
:1028800043969CA78BA71DA70EA741E050E060E0F0
:1028900070E0F1E06F1203C040E050E0BA01CE01F9
:1028A00087960E944C1341E050E060E070E082E0C7
:1028B000681619F040E050E0BA01CE018B960E94F4
:1028C0004C13AE960FB6F894DEBF0FBECDBFDF91AE
:1028D000CF911F910F91FF90EF90DF90CF90BF901D
:1028E000AF909F908F907F906F9008950F931F935C
:1028F000CF93DF93CDB7DEB763970FB6F894DEBF03
:102900000FBECDBF8C0140E069E00E94C10EF8010E
:102910004281538120813181188A198A1A8A1B8A3F
:102920005C834B833A83298323E030E03E832D830D
:1029300021E02A8798878F831B8682E08987CE01D2
:1029400001960E949011CB0163960FB6F894DEBFFA
:102950000FBECDBFDF91CF911F910F910895CF93FF
:10296000DF936DE482E395E00E949E0683E993E0A5
:102970000E94B406C3E6D3E06881798190E080E0EC
:1029800040E10E944C1086EE91E00E9490106A8116
:102990007B8190E080E040E10E944C108DEE91E060
:1029A0000E949010609161037091620390E080E05A
:1029B00040E10E944C1083EF91E00E949010CBE622
:1029C000D3E068817981072E000C880B990B40E1D8
:1029D0000E944C1089EF91E00E9490106A817B81E7
:1029E000072E000C880B990B40E10E944C108FEFD2
:1029F00091E00E9490106C817D81072E000C880B65
:102A0000990B40E10E944C1085E092E00E949010EA
:102A10006E817F81072E000C880B990B40E10E948C
:102A20004C108BE092E00E949010C5EBD3E06881DF
:102A30007981072E000C880B990B40E10E944C1005
:102A400081E192E00E9490106A817B81072E000C48
:102A5000880B990B40E10E944C1087E192E00E94A4
:102A600090106C817D81072E000C880B990B40E142
:102A70000E944C108DE192E00E9490106E817F8147
:102A8000072E000C880B990B40E10E944C1083E24A
:102A900092E00E9490106091B2047091B30490E0B3
:102AA00080E04AE00E944C108BE292E00E9490107D
:102AB000DF91CF910C94540FAF92BF92CF92DF92DF
:102AC000EF92FF920F931F93CF93DF93DC01CD9092
:102AD000DC901197C114D10439F01496CD91DC919A
:102AE0008C017601209761F4DF91CF911F910F91B6
:102AF000FF90EF90DF90CF90BF90AF900895750159
:102B00005701BFEFAB1ABB0AF7018081082E000CFA
:102B1000990B0E943732892B91F72197CC0DDD1D3F
:102B20008881082E000C990B0E943732892B29F0DE
:102B3000CE15DF0510F02197F3CFAE014F5F5F4F49
:102B40004E195F09D80115965C934E931497CE14D5
:102B5000DF0420F4B701C6010E940B35D801ED91C6
:102B6000FC91119714968D919C91E80FF91F10829A
:102B7000BBCFFC0124813581232B31F421E0FB0103
:102B8000672B49F4822F0895808191816115710529
:102B900039F421E0FC0180818823A1F320E0F2CF09
:102BA0000E941F3521E0892B69F3F8CF0F931F9303
:102BB000CF93DF938C01EB01FC0180819181009721
:102BC000E1F06881798161157105A9F04281538135
:102BD0002C813D814217530770F00E9428358C816B
:102BE0009D81F801958384831D821C82DF91CF91A2
:102BF0001F910F9108950E94C53388819981F80132
:102C0000918380838A819B81938382838C819D8140
:102C100095838483198218821B821A82E5CFCF9311
:102C2000DF93EC0188819981009711F00E94C533F0
:102C3000198218821D821C821B821A82DF91CF9119
:102C40000895FC0180819181009711F00C94C533A7
:102C500008950F931F93CF93DF93EC01888199819F
:102C6000009759F02A813B812617370730F081E021
:102C7000DF91CF911F910F9108958B016F5F7F4F6F
:102C80000E944E34009759F0998388831B830A83EE
:102C90002C813D81232B59F7FC011082E8CF80E085
:102CA000E7CFEF92FF920F931F93CF93DF93EC0147
:102CB0007B01CB010E94FE310097A9F00C811D81A0
:102CC000080F191FB801CE010E942916882361F050
:102CD000288139818C819D81B701820F931F0E94C9
:102CE000F7311D830C8381E0DF91CF911F910F910C
:102CF000FF90EF900895EF92FF920F931F93CF9361
:102D0000DF936115710541F480E0DF91CF911F9150
:102D10000F91FF90EF90089541155105B1F07B019F
:102D2000EC010C811D81040F151FB8010E942916AA
:102D3000882351F3288139818C819D81B701820FCD
:102D4000931F0E9428351D830C8381E0DECFCF9333
:102D5000DF93EC01FB0101900020E9F73197AF010F
:102D6000461B570B0E947B16811103C0CE010E94A7
:102D70000F16CE01DF91CF910895CF93DF93EC0131
:102D8000FB0144815581608171810E947B16811114
:102D900003C0CE010E940F16CE01DF91CF9108959E
:102DA000FB0144815581608171810C947B16EF9207
:102DB000FF920F931F93CF93DF93EC017B018A0166
:102DC000BA010E94291681110BC0CE010E940F1674
:102DD000CE01DF91CF911F910F91FF90EF90089559
:102DE0001D830C83B701888199810E942835F0CF1B
:102DF000FB0101900020E9F73197AF01461B570B0B
:102E00000C94D716CF93DF93EC01FB01861797073D
:102E100049F0608171816115710541F044815581EE
:102E20000E94D716CE01DF91CF9108950E940F1610
:102E3000F9CFFC0111821082138212821582148252
:102E40000C940217FC0111821082138212821582E7
:102E500014826115710551F0FB0101900020E9F722
:102E60003197AF01461B570B0C94D7160895AF92BC
:102E7000BF92CF92DF92EF92FF920F931F93CF9367
:102E8000DF936C015B017A0189012417350720F477
:102E90008F2D7901042F182F63EE71E0C6010E9477
:102EA0002217D5011496CD91DC91EC16FD06E0F4C5
:102EB0000C171D0708F4E801D501ED91FC9111975D
:102EC000EC0FFD1F108110826D917C916E0D7F1DA6
:102ED000C60161157105A1F00E94F816F501808107
:102EE0009181C80FD91F1883C601DF91CF911F911F
:102EF0000F91FF90EF90DF90CF90BF90AF9008952B
:102F00000E940F16EBCFEF92FF920F931F93CF9378
:102F1000DF93EC018B01198218821B821A821D82B9
:102F20001C82CB010E94FE317C01BC01CE010E94BB
:102F30002916811109C0CE01DF91CF911F910F9108
:102F4000FF90EF900C940F16FD82EC82B8018881FF
:102F50009981DF91CF911F910F91FF90EF900C9489
:102F6000F7314F925F926F927F92AF92BF92CF9262
:102F7000DF92EF92FF920F931F93CF93DF93CDB722
:102F8000DEB72C970FB6F894DEBF0FBECDBF2B0176
:102F90003C015A0168017901B801CA010E94291651
:102FA00081E0C81AD108E108F108F7FC39C0D30163
:102FB000C2018F709927AA27BB278D599E4FFC010C
:102FC00080811A8219821C821B821E821D828F833D
:102FD0001886BE01695F7F4FCE0101960E94F816E8
:102FE000BE016F5F7F4FCE0107960E941917B50192
:102FF000CE0107960E94BD16BC01C5010E940217B2
:10300000CE0107960E942116CE0101960E9421163C
:1030100084E076946794579447948A95D1F7C0CF0B
:103020002C960FB6F894DEBF0FBECDBFDF91CF91C7
:103030001F910F91FF90EF90DF90CF90BF90AF90D6
:103040007F906F905F904F900895CF92DF92EF92B4
:10305000FF920F931F93CF93DF9300D000D000D047
:10306000CDB7DEB76B017C0163EE71E0CE01019656
:103070000E94221704E010E020E030E0AE014F5F34
:103080005F4FC701B6010E94B11769817A8144E0A0
:1030900050E082E395E00E947F06CE0101960E94F7
:1030A000211626960FB6F894DEBF0FBECDBFDF9176
:1030B000CF911F910F91FF90EF90DF90CF900895E7
:1030C0000F931F93CF93DF93EC018B0163E582E3B2
:1030D00095E00E949E06BE01DD0F880B990B0E94B1
:1030E000251860E282E395E00E949E06C8010E94D6
:1030F0009506DF91CF911F910F910C94540F8F92F1
:103100009F92AF92BF92CF92DF92EF92FF920F9376
:103110001F93CF93DF93CDB7DEB72C970FB6F894FC
:10312000DEBF0FBECDBF6C017B0149015A0163EECA
:1031300071E0CE0101960E942217B601CE010196E0
:103140000E94D016B701CE0101960E94D01641E030
:1031500050E067EF71E0CE0101960E947B1663EEAE
:1031600071E0CE0107960E942217012E000C220B5F
:10317000330BAE01495F5F4FC501B4010E94B11727
:10318000BE01695F7F4FCE0101960E94D016CE012D
:1031900001960E94590FCE0107960E942116CE017A
:1031A00001960E9421162C960FB6F894DEBF0FBE32
:1031B000CDBFDF91CF911F910F91FF90EF90DF90E6
:1031C000CF90BF90AF909F908F9008950F931F93D3
:1031D000CF93DF93CDB7DEB762970FB6F894DEBF1B
:1031E0000FBECDBF8C01CB01F8011182108213827A
:1031F00012821582148250E0BE016F5F7F4F0E94E1
:103200000732BE016F5F7F4FC8010E94F8166296B9
:103210000FB6F894DEBF0FBECDBFDF91CF911F91E7
:103220000F910895EF92FF920F931F93CF93DF9327
:10323000CDB7DEB768970FB6F894DEBF0FBECDBF2F
:1032400009E911E081EBE82E81E0F82EF8016081B8
:103250007181CE010D960E94221766E074E0CE01C6
:1032600007960E94831763EE71E0CE0101960E94DB
:103270002217BE01695F7F4FCE0101960E94D016D2
:1032800041E050E067EF71E0CE0101960E947B16AD
:10329000BE01635F7F4FCE0101960E94D016CE0122
:1032A00001960E94590FCE0101960E942116CE016F
:1032B00007960E942116CE010D960E9421160C5FE2
:1032C0001F4FE016F10611F64AE064E070E0CE010F
:1032D00043960E94E6184AE066E070E0CE010D9643
:1032E0000E94E61869EF73E0CE0101960E948317F1
:1032F000BE016F5F7F4FCE0107960E941917BE0176
:10330000635F7F4FCE0107960E94BD168C016AEE67
:1033100073E00E945116811103C0C8010E940F166C
:10332000BE016D5E7F4FC8010E94BD168C0162EE2A
:1033300073E00E945116811103C0C8010E940F164C
:10334000C8010E94590FCE0107960E942116CE0196
:1033500001960E942116CE010D960E942116CE01E3
:1033600043960E94211668960FB6F894DEBF0FBEF2
:10337000CDBFDF91CF911F910F91FF90EF900895F6
:103380008F929F92AF92BF92CF92DF92EF92FF9275
:103390000F931F93CF93DF93CDB7DEB72C970FB664
:1033A000F894DEBF0FBECDBF7C018FE4C82E81E054
:1033B000D82E10E000E0F60160817181C7010E9403
:1033C000B915882309F480C085E0809FF001819FB2
:1033D000F00D1124E15BFE4F6281653090F40380B3
:1033E000F481E02D6330B0F180809180B12CA12C6C
:1033F00063EE71E0CE0101960E94221704E010E016
:1034000035C0653009F450C070E04AE0CE0107963F
:103410000E94E6186FE272E0CE0101960E94221728
:10342000BE01695F7F4FCE0101960E94BD166DE31C
:1034300072E00E94A716B7010E94BD16BC0183E08E
:1034400090E00E946018CE0101960E942116CE01E4
:10345000079615C08080912CB12CA12C63EE71E0F1
:10346000CE0101960E94221702E010E0A50194010E
:10347000B701CE0101960E947F18CE0101960E94ED
:1034800021162C960FB6F894DEBF0FBECDBFDF918C
:10349000CF911F910F91FF90EF90DF90CF90BF9051
:1034A000AF909F908F9008950380F481E02D8080ED
:1034B0009180A280B38063EE71E0CE0101960E94FC
:1034C000221708E010E0D2CF0F5F1F4FF5E0CF0EBC
:1034D000D11C0430110509F06ECF69E472E0CE0111
:1034E00001960E942217B701CE0101960E94BD16D7
:1034F0006EE472E00E94A716BC0183E090E00E9497
:103500006018CE0101960E942116BBCF2F923F92E8
:103510004F925F926F927F928F929F92AF92BF92E3
:10352000CF92DF92EF92FF920F931F93CF93DF938F
:1035300000D000D0CDB7DEB73C012DB73EB73C83FD
:103540002B838F569F4F9A838983FC018081281B90
:1035500031090FB6F8943EBF0FBE2DBF8DB79EB791
:1035600001962C01F30124A8312CDC0190E080E0CD
:10357000F301821593054CF420A931A9F901E80F54
:10358000F91F20812D930196F3CF85A9882341F15E
:1035900084A595A528E097FD09C068E671E00E9422
:1035A0000F336DE270E00E940F33262FF30186A5E2
:1035B00097A568E097FD08C068E671E00E940F33A8
:1035C0006DE270E00E940F33F201E20DF31D30E175
:1035D000639FB0011124262B2083C10101961C0199
:1035E0004201820C931CF301A4ACB5ACC6ACD7ACC1
:1035F000E0ACF1AC02AD13AD208131814281538149
:1036000066A96170C3010E943B07280E391E420162
:10361000820C931CF301EC5BFF4FA080B180C28051
:10362000D3803497E080F18002811381F3012481FB
:1036300035814681578166A966956170C3010E94F4
:103640003B07280E391E4201820C931CF301E45BF8
:10365000FF4FA080B180C280D3803497E080F1809A
:1036600002811381F301208531854285538566A946
:1036700062FB662760F9C3010E943B07280E391ED2
:103680004201820C931CF301EC5AFF4FA080B180E1
:10369000C280D3803497E080F18002811381F301EE
:1036A000248535854685578566A963FB662760F9BD
:1036B000C3010E943B07280E391E4201820C931C55
:1036C000F301E45AFF4FA080B180C280D3803497C9
:1036D000E080F18002811381F301208931894289E0
:1036E000538966A962956170C3010E943B07280E49
:1036F000391E4201820C931CF301EC59FF4FA0804C
:10370000B180C280D3803497E080F1800281138140
:10371000F301248935894689578966A965FB66279F
:1037200060F9C3010E943B07280E391E4201820C3A
:10373000931CF301E459FF4FA080B180C280D38075
:103740003497E080F18002811381F301248D358D5F
:10375000468D578D67A96170C3010E943B07280EF3
:10376000391E4201820C931CF301EC58FF4FA080DC
:10377000B180C280D3803497E080F18002811381D0
:10378000F301208D318D428D538D67A9669561704F
:10379000C3010E943B07280E391E4201820C931C74
:1037A000F301E458FF4FA080B180C280D3803497EA
:1037B000E080F18002811381F30120A131A142A1B7
:1037C00053A167A962FB662760F9C3010E943B070A
:1037D000280E391E4201820C931CF301EC57FF4F57
:1037E000A080B180C280D3803497E080F1800281D4
:1037F0001381F30124A135A146A157A167A963FB59
:10380000662760F9C3010E943B07280E391E42015A
:10381000820C931CF301E457FF4FA080B180C2805B
:10382000D3803497E080F18002811381F30120A5D9
:1038300031A542A553A567A962956170C3010E9495
:103840003B070E94AA084C01E981FA814081F301FB
:10385000E057FF4F808150E03A01FFEF6F1A7F0A77
:103860002DB73EB7261937090FB6F8943EBF0FBEE5
:103870002DBF0DB71EB70F5F1F4FEDB7FEB781838A
:10388000B201C80101960E940B35F4018381A301A6
:10389000B80180640E94FA042B813C810FB6F89431
:1038A0003EBF0FBE2DBF0F900F900F900F90DF9176
:1038B000CF911F910F91FF90EF90DF90CF90BF902D
:1038C000AF909F908F907F906F905F904F903F90C0
:1038D0002F9008958091670390916803009711F0ED
:1038E0000E94861A8091690390916A03009711F0F3
:1038F0000C94861A0895CF93DF93482F50E09A01D5
:10390000220F232F221F330BF901EE0FFF1FE9595E
:10391000FC4FA081B181109709F43FC075E0559527
:1039200047957A95E1F74370982F9F70E42FF0E068
:10393000220F331F220F331FE901C654DD4FCE0F74
:10394000DF1F8881662331F1982B9883D5968C915F
:10395000D597481710F5EF016696CC0FDD1FCA0FFB
:10396000DB1F26543D4FE20FF31FE081EF70F0E0C4
:10397000EE0FFF1FED5DFE4F80819181998388835B
:10398000D2968C91D297882341F0CD01DF91CF91CF
:103990000C94861A90959823D8CFDF91CF910895F3
:1039A000E82FF0E0EE0FEF2FEE1FFF0BEE0FFF1FE3
:1039B000E959FC4FA081B181109749F1E82FEF77C9
:1039C000D3969C91D397E91710F5E695E695E69581
:1039D000D0962D913C91D197E20FF32FF11D877076
:1039E00041E050E060E070E004C0440F551F661FE6
:1039F000771F8A95D2F74095808148234083D296DD
:103A00008C91D297882319F0CD010C94861A0895D1
:103A1000E82FF0E0EE0FEF2FEE1FFF0BEE0FFF1F72
:103A2000E959FC4FA081B181109741F1E82FEF7760
:103A3000D3969C91D397E91708F5E695E695E69518
:103A4000D0962D913C91D197E20FF32FF11D877005
:103A500041E050E060E070E004C0440F551F661F75
:103A6000771F8A95D2F78081842B8083D2968C91A0
:103A7000D297882319F0CD010C94861A08952F92BD
:103A80003F924F925F926F927F928F929F92AF92EE
:103A9000BF92CF92DF92EF92FF920F931F93CF933B
:103AA000DF93CDB7DEB7CE59D1090FB6F894DEBF9C
:103AB0000FBECDBF8CEA90E00E943E1047E653E077
:103AC000C656DF4F59834883CA59D04054E0C75681
:103AD000DF4F5883C959D0409924939444244A9481
:103AE000F3E05F2E612C712C82E990E00E94293373
:103AF0008C018091AC0421E0883008F420E031E0B2
:103B0000873008F430E041E0863008F440E051E0CE
:103B1000853008F450E061E0843008F460E071E042
:103B2000833008F470E0E1E0823008F4E0E091E0F6
:103B3000811101C090E0F091AD048090AB04D801F8
:103B4000D1961C921E92D097D4961C92D497D89658
:103B50001D921D921D921C92DB97DC964D925D92F8
:103B60006D927C92DF97A05CBF4F1D921D921D92BB
:103B70001C92139714964D925D926D927C921397BE
:103B800014961D921D921D921C92139714964D929D
:103B90005D926D927C92139714961D921D921D92C8
:103BA0001C92139714964D925D926D927C9213978E
:103BB00014961D921D921D921C92139714964D926D
:103BC0005D926D927C92139714961D921D921D9298
:103BD0001C92139714964D925D926D927C9213975E
:103BE00014961D921D921D921C92139714964D923D
:103BF0005D926D927C92139714961D921D921D9268
:103C00001C92139714964D925D926D927C9213972D
:103C100014961D921D921D921C92139714964D920C
:103C20005D926D927C92139714961D921D921D9237
:103C30001C92139714964D925D926D927C921397FD
:103C400014961D921D921D921C92139714964D92DC
:103C50005D926D927C9213971496C756DF4FA880A1
:103C6000C959D040AC92D801D3968C92D397D596AF
:103C7000FC93882309F416C4B1E0A2E0823008F472
:103C8000A0E0AB2BB4E0833008F4B0E0AB2BB8E09D
:103C9000843008F4B0E0AB2BB0E1853008F4B0E03C
:103CA000AB2BB0E2863008F4B0E0FA2EFB2AD80144
:103CB000D696FC92873008F4F7C3B1E0A2E08830D2
:103CC00008F4A0E0FA2EFB2AD801D796FC92A82D82
:103CD000A77019F0B8E0BA1BAB2F9E0F970F960F85
:103CE000590F952F940F332E320E292F230D220FAB
:103CF000C456DF4F2883CC59D04035E039839A82AF
:103D000029E02B8344E04C8341EA4D839E8245E8C1
:103D10004F83C756DF4FA880C959D040A886882056
:103D200009F4C4C339872A8729E12B879C8629E2B5
:103D30002D878E8625E12F87188A25E2298B9A8A7E
:103D400045E74B8B9C8A35E93D8B8E8A25E52F8B89
:103D5000188E25E6298F1A8E21E82B8F52E05C8F72
:103D6000AA2309F4A6C34D8F9E8E3F8FA8A329A333
:103D700023E02AA322E230E0911104C07901FF235D
:103D800009F42AC245E0A1E0B0E0AC0FBD1FA20FCC
:103D9000B31F4C93790142E0E40EF11CA2E0B0E0C5
:103DA000AC0FBD1FA20FB31F9C92FF2309F43AC1B1
:103DB00061E070E06C0F7D1FE60EF71EE9E0D701B1
:103DC000EC93A4E0B0E0AC0FBD1FA20FB31FE9E37A
:103DD000AE2EAC92A5E0B0E0AC0FBD1FA20FB31F9A
:103DE00045E1B42EBC92A6E0B0E0AC0FBD1FA20F1F
:103DF000B31F1C92A7E0B0E0AC0FBD1FA20FB31F12
:103E000055E2F52EFC92A8E0B0E0AC0FBD1FA20F6A
:103E1000B31F47E04C93DE01A20FB31F55E3199681
:103E20005C93DE01A20FB31F1A961C92DE01A20F53
:103E3000B31F66E41B966C93DE01A20FB31F7BE3F6
:103E40001C967C93DE01A20FB31F1D969C92DE018F
:103E5000A20FB31FE5E61E96EC93DE01A20FB31F7F
:103E600064E1A62E1F96AC92DE01A20FB31F75E788
:103E7000B72E5096BC92E4E02E2EDE01A20FB31FA7
:103E800051962C92DE01A20FB31F45E9F42E5296F3
:103E9000FC92DE01A20FB31F53969C92DE01A20F8B
:103EA000B31F41E854964C93DE01A20FB31F52E0BA
:103EB00055965C9379016BE1E60EF11CA9014B5E0E
:103EC0005F4FA1E0B0E0AC0FBD1FA40FB51FC956F6
:103ED000DF4FB983A883C759D0405901B6E1AB0E73
:103EE000B11C41E050E04C0F5D1F4A0D5B1DC356F5
:103EF000DF4F59834883CD59D040690157E1C50E42
:103F0000D11C61E070E06C0F7D1FC60ED71EB90199
:103F1000685E7F4FA1E0B0E0AC0FBD1F6A0F7B1F52
:103F2000A901475E5F4F4A0F5B1FD9015A96AA2429
:103F3000A394B12CAC0EBD1EAA0DBB1DF23008F42B
:103F4000BBC2E9E0AE2EC956DF4FE881F981C759FF
:103F5000D040A082F9E3AF2EC356DF4FE881F9814C
:103F6000CD59D040A082E5E1AE2EF601A082FB0142
:103F70001082F5E2AF2EFA01A08247E0B42EBC9287
:103F800041E050E04C0F5D1FE40EF51EE5E3D70164
:103F9000EC93DE01A20FB31F5D961C92DE01A20F0F
:103FA000B31FF6E45E96FC93DE01A20FB31F5BE342
:103FB000A52E5F96AC92DE01A20FB31F90969C9245
:103FC000DE01A20FB31F65E6B62E9196BC92DE010C
:103FD000A20FB31F74E1F72E9296FC92DE01A20F9E
:103FE000B31F45E793964C93DE01A20FB31F94963F
:103FF0002C92DE01A20FB31F55E995965C93DE016A
:10400000A20FB31F96969C92DE01A20FB31F61E828
:1040100097966C939797790178E2E70EF11CE2E0AE
:104020009896EC93992309F4D7C049E0E1E0F0E0D9
:10403000EC0FFD1FEE0DFF1D4083E2E0F0E0EC0F02
:10404000FD1FEE0DFF1D908225E1E3E0F0E0EC0F97
:10405000FD1FEE0DFF1D2083E4E0F0E0EC0FFD1FDF
:10406000EE0DFF1D108227E2E5E0F0E0EC0FFD1FF2
:10407000EE0DFF1D20832FEFE6E0F0E0EC0FFD1FBB
:10408000EE0DFF1D2083E7E0F0E0EC0FFD1FEE0DCD
:10409000FF1D2083E8E0F0E0EC0FFD1FEE0DFF1D9B
:1040A0001082FE01EE0DFF1D118625E7FE01EE0DCB
:1040B000FF1D228720E1FE01EE0DFF1D238725E96C
:1040C000FE01EE0DFF1D2487FE01EE0DFF1D9587FD
:1040D00091EAFE01EE0DFF1D96879701215F3F4F8C
:1040E000FE01EE0DFF1D1786882309F458C061E01C
:1040F00070E06C0F7D1F260F371FD9014C9397017D
:104100002F5E3F4F90E3FE01EE0DFF1D918B82303D
:1041100008F445C0260F371FF901408397012D5E33
:104120003F4F91E3FE01EE0DFF1D938B8330B8F1FD
:10413000260F371FD9014C9397012B5E3F4F92E317
:10414000FE01EE0DFF1D958B843048F1260F371FC1
:10415000F90140839701295E3F4F93E3FE01EE0D85
:10416000FF1D978B8530D8F0260F371FD9014C9350
:104170009701275E3F4F94E3FE01EE0DFF1D918FE7
:10418000863068F0260F371FF90140839701255EBE
:104190003F4FEC0EFD1E95E3D7015B969C93E1E04B
:1041A000F0E0EC0FFD1FE20FF31F91E89083E2E0D7
:1041B000F0E0EC0FFD1FE20FF31F92E09083790116
:1041C000B3E0EB0EF11CE3E0F0E0EC0FFD1F2E0F6F
:1041D0003F1F90ECD9019C93332009F4A3C095E0D4
:1041E000E1E0F0E0EC0FFD1FEE0DFF1D908392E08B
:1041F000E2E0F0E0EC0FFD1FEE0DFF1D908395E176
:10420000E3E0F0E0EC0FFD1FEE0DFF1D9083E4E016
:10421000F0E0EC0FFD1FEE0DFF1D108297E2E5E0D0
:10422000F0E0EC0FFD1FEE0DFF1D90839FEFE6E029
:10423000F0E0EC0FFD1FEE0DFF1D9083E7E0F0E0D6
:10424000EC0FFD1FEE0DFF1D9083E8E0F0E0EC0F9A
:10425000FD1FEE0DFF1D1082FE01EE0DFF1D1186EC
:1042600095E7FE01EE0DFF1D928790E1FE01EE0D38
:10427000FF1D938795E9FE01EE0DFF1D9487FE015A
:10428000EE0DFF1D358691EAFE01EE0DFF1D9687AE
:104290009701215F3F4FFE01EE0DFF1D178687300E
:1042A00018F1E1E0F0E0EC0FFD1F2E0F3F1F99E049
:1042B000D9019C9397012F5E3F4F4AEBFE01EE0D13
:1042C000FF1D418B883080F0E1E0F0E0EC0FFD1F36
:1042D0002E0F3F1FD9019C9397012D5E3F4FEC0E8F
:1042E000FD1E8BEBF701838BE1E0F0E0EC0FFD1F8F
:1042F000E20FF31F81E88083E2E0F0E0EC0FFD1FA6
:10430000E20FF31F82E080837901F3E0EF0EF11CEE
:1043100083E0A82EB12CAC0EBD1E2A0D3B1D80ECF7
:10432000D9018C93E1E0F0E0EC0FFD1FEE0DFF1DD5
:1043300080EC8083BFEFEB1AFB0AC7010E94293390
:104340005C01A701BE016F5F7F4F0E940B3587E0C4
:1043500090E00E9429336C01FC0111821082B3822B
:10436000A282F582E48216820E94AA08FC01A3853B
:10437000B485109709F0BEC0D486C386858596851E
:10438000D60114962D913C91820F931F96878587B5
:104390008820C1F0F80193A9892F86958695869586
:1043A000977009F0AFC084ABF80184A990E0009742
:1043B00011F481E090E00E942933D801D1969C93BA
:1043C0008E93D097F801EF56FF4F81E0D801D59634
:1043D0009C91911101C080E0D801D4969C91D49712
:1043E000C456DF4FA880CC59D0409A0D890F8083E6
:1043F0001D921D921D921C921397F8011482158232
:104400001682178218961D921D921D921C921B9760
:10441000148615861686178650961D921D921D923B
:104420001C925397148A158A168A178A58961D92D9
:104430001D921D921C925B97148E158E168E178EF0
:1044400090961D921D921D921C92939714A215A2F4
:1044500016A217A298961D921D921D921C929B97D0
:104460008FEF9FEF9D969C938E939C979F969C9326
:104470008E939E9790E080E0F80124A928171906F2
:1044800009F00CF442C000A8F1A9E02DE80FF91FD3
:1044900010820196F1CF65E0C756DF4F6883C95996
:1044A000D04022CBB0E0ECCBB0E00BCC28E030E049
:1044B00063CC2CE130E060CC25E7A22EC956DF4F5B
:1044C000E881F981C759D040A082C356DF4FE88107
:1044D000F981CD59D040908235E9A32EF601A08212
:1044E000FB01208261E8A62EFA01A08223E02C9332
:1044F00099CDDC018D919C9111970097D1F7CD92C8
:10450000DC923CCF8F5F84AB4FCFC656DF4FA88184
:10451000B981CA59D0400D931D93C656DF4FB98358
:10452000A883CA59D04010AE11AE12AE13AE44AE3D
:1045300055AE66AE77AEE05CFF4F108211821282FC
:104540001382349640825182628273823496108242
:104550001182128213823496408251826282738267
:1045600034961082118212821382349640825182D4
:104570006282738234961082118212821382349680
:10458000408251826282738234961082118212823A
:1045900013823496408251826282738234961082F2
:1045A0001182128213823496408251826282738217
:1045B0003496108211821282138234964082518284
:1045C00062827382F80112AAC8010E94861AC75635
:1045D000DF4FF881C959D040F53009F05CCFC256A1
:1045E000DF4F0FB6F894DEBF0FBECDBFDF91CF9186
:1045F0001F910F91FF90EF90DF90CF90BF90AF9001
:104600009F908F907F906F905F904F903F902F90F2
:10461000089585ED8093BC008091F1049091F2049F
:10462000A091F304B091F4040796A11DB11D23E0FD
:10463000B695A795979587952A95D1F72091BC00B7
:1046400024FD03C01092EF0408954091F1045091AD
:10465000F2046091F3047091F404452B462B472B30
:1046600069F30097A105B10541F02AE22A95F1F717
:1046700000C00197A109B109E1CF8091F0040C9429
:10468000CC0A6F927F928F929F92AF92BF92CF92FD
:10469000DF92EF92FF920F931F93CF93DF93CDB7EB
:1046A000DEB72C970FB6F894DEBF0FBECDBF8C01DE
:1046B0006B01642E5901CE0107960E941917F12C47
:1046C000E12C062C000C7708F60184819581892B5A
:1046D00009F474C080809180B301C4010E94143534
:1046E000009759F5EA14FB0409F068C0F80111823B
:1046F00010821382128215821482BE01695F7F4F7D
:10470000C8010E94D615CE0107960E942116C80145
:104710002C960FB6F894DEBF0FBECDBFDF91CF91C0
:104720001F910F91FF90EF90DF90CF90BF90AF90CF
:104730009F908F907F906F900895AC014819590910
:104740004F3F540779F241155105B9F42B853C854B
:1047500041E050E0BE01695F7F4FCE0101960E94AB
:104760003717BE016F5F7F4FCE0107960E94D615A7
:10477000CE0101960E942116A7CFEA14FB04B1F4E2
:104780009A0150E040E0BE01695F7F4FCE01019683
:104790000E943717BE016F5F7F4FCE0107960E94C0
:1047A000D615CE0101960E942116A0CFFFEFEF1A79
:1047B000FF0A2B853C854F5F5F4FCCCF63EE71E0E6
:1047C000C8010E9422179FCFEF92FF920F931F9371
:1047D000CF93DF93CDB7DEB7A4970FB6F894DEBFC3
:1047E0000FBECDBF8C0130E020E04DE3BC01CE0117
:1047F00049960E944123CE0149960E945C1521E012
:1048000030E04DE3B801CE014F960E944123CE0126
:104810004F960E945C158FE4E82E81E0F82E10E0A0
:1048200000E0D7016D917C91CE0149960E94B915A7
:10483000882309F499C025E0209FC001219F900D95
:104840001124FC01E15BFE4F7F011281123009F45B
:104850005EC008F047C0112309F459C0113009F4B3
:1048600056C067EA73E0CE0143960E948317612F1A
:1048700070E04AE0CE010D960E94E61869E973E007
:10488000CE0101960E948317BE016F5F7F4FCE015C
:1048900007960E941917BE01635F7F4FCE010796EE
:1048A0000E94BD16BE016D5E7F4F0E94BD16BE0107
:1048B000675E7F4F0E94BD16BC0183E090E00E94BE
:1048C0006018CE0107960E942116CE0101960E9423
:1048D0002116CE010D960E942116CE0143960E940C
:1048E000211620C0143099F190F1153009F0B9CF9C
:1048F00068E070E0CE014F960E94180FD701139622
:10490000ED91FC9160837183828393830BC068E097
:1049100070E0CE014F960E94180FD7011396ED91CB
:10492000FC916083CE014F960E942116CE014996DC
:104930000E942116A4960FB6F894DEBF0FBECDBF1D
:10494000DF91CF911F910F91FF90EF90089568E054
:1049500070E0CE014F960E94180FD7011396ED918B
:10496000FC9171836083DECF0F5F1F4FB5E0EB0ECC
:10497000F11C0430110509F054CF69E472E0CE0156
:1049800001960E942217BE01675E7F4FCE010196FD
:104990000E94BD166EE472E00E94A716BC0183E07F
:1049A00090E00E946018CE0101960E942116BACFB5
:1049B000CF92DF92EF92FF920F931F93CF93DF93EB
:1049C000CDB7DEB7CD5ED1090FB6F894DEBF0FBE0E
:1049D000CDBFCE0101967C0100E810E06C01C8015A
:1049E0000E945332F70181937F010F5F1F4F0D36F5
:1049F000F1E01F07A1F7CE0102960E941D039981E5
:104A000098131AC08DEEF601A1ECB3E001900D925F
:104A10008A95E1F781E090E0C351DF4F0FB6F8943B
:104A2000DEBF0FBECDBFDF91CF911F910F91FF90E1
:104A3000EF90DF90CF9008958EEF9FEFEDCFCF9363
:104A4000DF9300D000D000D0CDB7DEB70E94D824CD
:104A5000019771F46AEC73E0CE0101960E9483170E
:104A6000CE0101960E94590FCE0101960E94211697
:104A700026960FB6F894DEBF0FBECDBFDF91CF9163
:104A800008950F931F93CF93DF9382EC93E00E94DE
:104A90001D038093C10301EC13E0C0E8D0E0F801EE
:104AA00061918F01CE010E945B322196CD36F1E0FB
:104AB000DF07A9F781E090E0DF91CF911F910F917F
:104AC0000895CF93DF9300D000D000D0CDB7DEB7EC
:104AD0000E944125019771F466ED73E0CE010196C5
:104AE0000E948317CE0101960E94590FCE010196B4
:104AF0000E94211626960FB6F894DEBF0FBECDBFDA
:104B0000DF91CF910895CF93DF9300D000D000D0F4
:104B1000CDB7DEB70E94770F0E94412563EB73E0AB
:104B2000CE0101960E948317CE0101960E94590F73
:104B3000CE0101960E94211626960FB6F894DEBF8C
:104B40000FBECDBFDF91CF9108951F920F920FB688
:104B50000F9211242F933F938F939F93AF93BF9303
:104B60008091B9049091BA04A091BB04B091BC04A7
:104B70003091B80423E0230F2D3758F50196A11D7D
:104B8000B11D2093B8048093B9049093BA04A09304
:104B9000BB04B093BC048091BD049091BE04A0916D
:104BA000BF04B091C0040196A11DB11D8093BD0446
:104BB0009093BE04A093BF04B093C004BF91AF9183
:104BC0009F918F913F912F910F900FBE0F901F904B
:104BD000189526E8230F0296A11DB11DD2CF1F9272
:104BE0000F920FB60F9211242F933F934F935F9321
:104BF0006F937F938F939F93AF93BF93EF93FF93A5
:104C0000E0911B01F0911C010995FF91EF91BF917B
:104C1000AF919F918F917F916F915F914F913F9154
:104C20002F910F900FBE0F901F9018951F920F920B
:104C30000FB60F9211242F933F934F935F936F936F
:104C40007F938F939F93AF93BF93EF93FF93E091E5
:104C50001901F0911A010995FF91EF91BF91AF9160
:104C60009F918F917F916F915F914F913F912F9184
:104C70000F900FBE0F901F9018951F920F920FB6B6
:104C80000F9211242F933F934F935F936F937F93D2
:104C90008F939F93AF93BF93EF93FF93E09117018F
:104CA000F09118010995FF91EF91BF91AF919F91FC
:104CB0008F917F916F915F914F913F912F910F90C5
:104CC0000FBE0F901F9018951F920F920FB60F9264
:104CD00011242F933F934F935F936F937F938F9301
:104CE0009F93AF93BF93EF93FF93E0911501F091E2
:104CF00016010995FF91EF91BF91AF919F918F910F
:104D00007F916F915F914F913F912F910F900FBEC7
:104D10000F901F9018951F920F920FB60F921124AB
:104D20002F933F934F935F936F937F938F939F93B3
:104D3000AF93BF93EF93FF93E0911301F0911401B0
:104D40000995FF91EF91BF91AF919F918F917F91C5
:104D50006F915F914F913F912F910F900FBE0F90E8
:104D60001F9018951F920F920FB60F9211248F93D8
:104D70009F938091E1009091E100937F9093E100F7
:104D800083FF0FC01092E90091E09093EB00109226
:104D9000EC0092E39093ED001092C20498E090939F
:104DA000F00082FF22C093E09093E9009091F2001E
:104DB000992319F09AE39093E80090915E03992368
:104DC00041F090915E03915090935E03911101C068
:104DD0005D9A9091C104992341F09091C104915042
:104DE0009093C104911101C0289A84FF18C080914A
:104DF000E2008E7E81608093E2008091E1008F7EF0
:104E00008093E10080915F038E7E806180935F03D9
:104E10009F918F910F900FBE0F901F90189580FF5C
:104E2000F7CF8091E2008E7E80618093E2008091D6
:104E3000E1008E7E8093E10080915F038E7E816031
:104E4000E5CF1F920F920FB60F921124CF92DF92EF
:104E5000EF92FF920F931F932F933F934F935F9384
:104E60006F937F938F939F93AF93BF93EF93FF9332
:104E7000CF93DF93CDB7DEB76C97DEBFCDBF109277
:104E8000E9008091E80083FF25C068E0CE014596E7
:104E90000E94900582EF8093E8008D8987FF39C0DA
:104EA0009091E80090FFFCCF982F907609F034C1E4
:104EB0009E894F89588D2F89F88C911131C0803887
:104EC00061F5809160038093F1001092F1008EEF04
:104ED0008093E8006C960FB6F894DEBF0FBECDBF8E
:104EE000DF91CF91FF91EF91BF91AF919F918F9102
:104EF0007F916F915F914F913F912F911F910F91F2
:104F0000FF90EF90DF90CF900F900FBE0F901F900B
:104F100018959EEF9093E800C7CF1092F100D5CF7F
:104F2000913059F48111D3CF4130510581F68091F0
:104F300060038D7F80936003CACF933049F4811161
:104F4000C6CF4130510519F6809160038260F2CFDF
:104F5000953041F48091E80080FFFCCF20682093D9
:104F6000E300B5CF963009F0A9C00B8D1C8D22E06F
:104F70001092E90010925C0310925B03F2122EC0B3
:104F800010925A03109259030E94B1051F8299E0B2
:104F90009983FA8291E09E8390EA98879AEF9987A5
:104FA00020915B0330915C03275F3F4F3C832B8351
:104FB0008D831092E90010925C0310925B031093B2
:104FC0005A030093590349E050E0BE016F5F7F4FE1
:104FD00080E00E94C3040E94B10579CF10935A0368
:104FE000009359030E949D05DC0112960D911C91BE
:104FF0000115110509F451C1D801ED91FC9104800E
:10500000F581E02DBE016B5E7F4FC80109950097C9
:1050100009F03EC1F80100851185EACFF3E0FF12E7
:105020000EC08F89882309F440C0823061F440E8C3
:1050300060E183E794E00E949004811148CF81E20F
:105040008093EB0047CF813029F440E86BE087E69E
:1050500094E0F1CF833099F70E949D05DC01129610
:10506000ED90FC908E010F5F1F4F6801E114F10479
:1050700079F0D701ED91FC910680F781E02DB80120
:10508000C7010995080F111DF701E084F184EECFE7
:10509000D8011C92F60101900020E9F73197BF0179
:1050A0006C197D0940E0C601C6CF61E574E0FB01E3
:1050B000449150E080E80E94C30409CF973009F47E
:1050C000BECF983021F481E08093F10000CF993079
:1050D00009F0FDCE837009F0B2CFE1E0F1E081E0AC
:1050E00031E096E32191222371F08093E90030931F
:1050F000EB00DF0111972C912093EC009093ED00D1
:105100008F5F873079F78EE78093EA001092EA008C
:105110008F898093C204DBCE8B8D9C8D1092E90029
:1051200010925C0310925B0390935A03809359038F
:10513000898D811192C08E899D89913A49F481327D
:1051400009F07DCF47E050E06BE071E080E0B3CF45
:10515000913209F074CF833269F48F89988DB0E071
:10516000A0E08093070190930801A0930901B093F8
:105170000A01ADCE803269F48091E80082FFFCCF55
:1051800067E08BE091E00E9490058BEF8093E80050
:105190009ECE823209F09BCE8F8980931201EEEF72
:1051A000FFE7859194918B3F9C4D51F1E0E0F8E051
:1051B00080910B0190910C01A0910D01B0910E0115
:1051C000803B9440A105B105F1F48091120180FD6E
:1051D0001AC0EE3F8AE0F80789F587E797E79183E1
:1051E00080838091600080935D0388E19BE00FB62F
:1051F000F894A895809360000FBE9093600067CEEE
:10520000EEEFFAE0D5CF808191818737974709F09B
:105210005ECEA89580916000886180936000809147
:105220005D0380936000EE3F2AE0F20789F08091F1
:10523000FE0A9091FF0A9183808349CE80819181FB
:105240008737980751F29093FF0A8093FE0AC5CFE3
:105250001092FF0A1092FE0A3ACE0E949D05DC01D0
:1052600012960D911C910115110509F4E8CED80193
:10527000ED91FC910190F081E02DBE016B5E7F4FBE
:10528000C8010995811123CEF80100851185EBCF66
:10529000181619060CF41BCED2CEF1E0FF12BECECA
:1052A00065E574E004CF1F920F920FB60F921124A0
:1052B0002F933F934F935F936F937F938F939F931E
:1052C000AF93BF93EF93FF938091B900887F8036AF
:1052D00009F44AC0F0F5883209F4A7C018F5803106
:1052E00009F49BC0B8F4882309F4F9C0883009F4A4
:1052F00094C0FF91EF91BF91AF919F918F917F915A
:105300006F915F914F913F912F910F900FBE0F9032
:105310001F901895883109F488C0803251F7809326
:10532000ED0414C0803409F49DC040F48033B9F317
:105330008833F9F68093ED0485ECB0C0803509F42C
:1053400085C0883509F496C0883499F60E940923EF
:10535000D0CF883909F48CC038F5883729F050F45B
:10536000883611F0803729F683E08093EF0410929D
:10537000330357C0883809F47BC0803919F080386E
:1053800009F0B7CF80913303803208F071C0E0910B
:10539000330381E08E0F809333038091BB00F0E0F4
:1053A000ED5EFC4F80833DC0803B39F0E0F4803AF5
:1053B00009F479C0883A09F09CCF84E08093EF0427
:1053C0001092120310921103E091C504F091C604EB
:1053D00009958091110381110FC081E08093110321
:1053E0001092F10209C0803C09F4A6CF883C09F470
:1053F000A3CF883B09F07DCFE091120381E08E0FAF
:1054000080931203F0E0EF50FD4F80818093BB004A
:10541000909112038091110329C08091CA04809356
:10542000BB0085EC8093BC0064CF9091EC0480912C
:10543000EB04981758F5E091EC0481E08E0F80930F
:10544000EC04F0E0E553FB4F8081E9CFE091EC0400
:1054500081E08E0F8093EC048091BB00F0E0E55377
:10546000FB4F80839091EC048091EB049817C8F275
:1054700085E8D8CFE091EC0481E08E0F8093EC04B6
:105480008091BB00F0E0E553FB4F80838091EE04F8
:1054900081115CCF81E08093C90484EA8093BC00D1
:1054A0001092EF0426CF85EC8093BC001092EF049D
:1054B00080913303803230F4E0913303F0E0ED5E0D
:1054C000FC4F10826091330370E0E091C304F091CF
:1054D000C40483E193E00995109233030ACF10923C
:1054E000ED0434CFE2E3F5E01382128288EE93E01C
:1054F000A0E0B0E084839583A683B78321EC31E0FC
:10550000318320832FEF3FEF35872487E2E8F5E0F2
:105510001382128284839583A683B78383ED91E0FF
:1055200091838083E8E9F5E0118210821382128270
:1055300080E18483EEE8F5E011821082138212820A
:1055400084830895CF93DF93CDB7DEB7C758D109D1
:105550000FB6F894DEBF0FBECDBF789484B58260DD
:1055600084BD84B5816084BD85B5826085BD85B507
:10557000816085BD80916E00816080936E00109285
:105580008100809181008260809381008091810000
:105590008160809381008091800081608093800091
:1055A0008091910082608093910080919100816050
:1055B0008093910080919000816080939000809111
:1055C000C10084608093C1008091C100826080939B
:1055D000C1008091C10081608093C1008091C300AF
:1055E00081608093C3008091C00082608093C0007E
:1055F0008091C20081608093C20080917A008460B3
:1056000080937A0080917A00826080937A00809102
:105610007A00816080937A0080917A00806880931C
:105620007A001092C2041092600310925F0380917E
:10563000D70081608093D70080EA8093D80089B535
:10564000806189BD89B5826089BD09B400FEFDCF46
:105650000E9446048091D8008F7C80618093D8009E
:105660008091E000807F8093E0008091E1008E7E59
:105670008093E1008DE08093E200559A209A62E0E9
:1056800087E00E94DA0362E082E00E94DA0362E0CF
:1056900083E00E94DA0380917A008C7F80937A0005
:1056A00080917A00846080937A0062E088E00E94B2
:1056B000DA0362E080E10E94DA0362E08EE00E9499
:1056C000DA0362E08FE00E94DA0360E082E10E9488
:1056D000DA0360E083E10E94DA0360E084E10E9483
:1056E000DA0360E085E10E94DA0362E085E00E946F
:1056F000DA0362E086E00E94DA0362E089E00E9459
:10570000DA0362E08AE00E94DA031B9914C0199957
:1057100012C00E94770F0E94412511E00E94D824F8
:10572000019759F00E94770F0E9441250E94680F4F
:1057300088ED94E008C010E0F1CF0E94680F89EA7C
:1057400094E01111F5CF0E943E1060E288E995E0E7
:105750000E94A710811141C085E994E00E943E108B
:1057600082E08093B80010E0812F877F8730F1F5C9
:1057700041E0612F88E995E00E94EA13612F88E9F2
:1057800095E00E94A31341E0612F8EE895E00E940E
:10579000EA13612F8EE895E00E94A3131F5F10317A
:1057A00019F784E894E00E94B4066091C30370E0A6
:1057B00090E080E04AE00E944C1081EE91E00E946F
:1057C00031108091C3038230F1F0833009F4A0C11D
:1057D0008130D9F40E94E01018C061E28EE895E0B3
:1057E0000E94A710882309F4B7CFBACF42E0612FF7
:1057F00088E995E00E94EA1342E0612F8EE895E087
:105800000E94EA13CBCF0E943F1D8EE594E0909357
:105810001C0180931B0180916A00806380936A0061
:10582000EE9A11E9212E11E0312E0E9421042091DF
:10583000B4043091B504AB01421B530B5093B30435
:105840004093B2046093B4047093B5048093B6049B
:105850009093B7040E94210488E995E00E94761491
:105860008095909590936403809363038EE895E010
:105870000E9476147C01E094F094F0926603E0922A
:105880006503B1E8AB2EB1E0BB2E10E000E0D12CF7
:10589000C12CD5012D913D915D013327F901EB53C9
:1058A000FA4F8491F901EA55FA4F8490F901E957CA
:1058B000FA4F9490992009F42EC181110E9460033F
:1058C000E92DF0E0EE0FFF1FE650FB4FA591B491DC
:1058D000EC918E2231E020E009F430E0832F922F0A
:1058E000B1E08B270C2C02C0880F991F0A94E2F7B5
:1058F000082B192BEFEFCE1ADE0AF4E0CF16D104F5
:1059000009F0C7CF109362030093610340916303D2
:105910005091640363E773E0CA57DF4F798368836C
:10592000C658D040DB0190E080E09C01285F3F4FEB
:10593000CD57DF4F39832883C358D0409A01082EB2
:1059400002C0369527950A94E2F721702D93CD5722
:10595000DF4F28813981C358D040CD57DF4FE881D0
:10596000F981C358D040EE58FC4FBA0102C0769579
:1059700067952A95E2F79B01217020839701082EF5
:1059800002C0369527950A94E2F721701D962C9354
:105990001D97CD57DF4F28813981C358D040CD574F
:1059A000DF4FE881F981C358D040ED58FC4FB70173
:1059B00002C0769567952A95E2F79B0121702587AD
:1059C00001968730910509F0B0CF802F81708093C8
:1059D0008F0301FB882780F98093900302FB8827BF
:1059E00080F98093910303FB002700F90093920351
:1059F000A9E8B1E07BE6A72E73E0B72EC501EC91D4
:105A00001296E23108F0E251F0E0E85FFA4FE491DB
:105A100030917B002E2F220F220F20723F7D232BEF
:105A200020937B00E770E064E0937C0020917A0093
:105A3000206420937A0020917A0026FDFCCF2091EB
:105A4000780030917900FC0121933193CF012A161F
:105A50003B06A9F680916303909164032091BD03F6
:105A600021115CC0806890936403809363038091EC
:105A70006303909164032091BE03211151C090688B
:105A80009093640380936303809165039091660310
:105A90002091BF03211146C08068909366038093D4
:105AA000650380916503909166032091C0032111E5
:105AB0003BC0906890936603809365038091B00427
:105AC00080FD34C0609163037091640360957095AC
:105AD00088E995E00E94D70E51E9852E51E0952E78
